:020000040800F2
:10000000600A002001010008E71C00088D190008A3
:10001000E51C000893070008F32400080000000016
:100020000000000000000000000000001523000890
:100030009507000800000000E921000817230008C8
:100040001B0100081B0100081B0100081B01000820
:100050001B0100081B0100081B0100081B01000810
:100060001B0100081B0100081B0100081B01000800
:100070001B0100081B0100081B0100081B010008F0
:100080001B0100081B0100081B0100081B010008E0
:100090001B0100081B0100081B0100081B010008D0
:1000A0001B0100081B0100081B0100081B010008C0
:1000B0001B0100081B0100081B0100081B010008B0
:1000C0001B0100081B0100081B010008ED210008AE
:1000D0001B0100081B0100081B0100081B01000890
:1000E000970700081B0100081B010008DFF80CD06F
:1000F00000F01CFB0048004725300008600A002083
:100100000648804706480047FEE7FEE7FEE7FEE7B1
:10011000FEE7FEE7FEE7FEE7FEE7FEE779230008DD
:10012000ED000008202A04DB203A21FA02F0002129
:10013000704721FA02F3D040C2F1200291400843F7
:1001400019467047D2B201E000F8012B491EFBD2DC
:1001500070470022F6E710B513460A4604461946D2
:10016000FFF7F0FF204610BD30B5044600200346DF
:1001700000E05B1C934203D2E05CCD5C401BF8D0F6
:1001800030BD2DE9FE4F81EA030404F0004421F064
:10019000004100944FF0000B23F0004350EA0104AB
:1001A0005ED052EA03045BD0C3F30A54C1F30A558C
:1001B0002C44A4F2F3340194A0FB0254C1F31301C4
:1001C00041F48011C3F3130343F4801301FB024491
:1001D00000FB034E840A970A44EA815447EA835796
:1001E000A4FB076802958D0A05FB07854FEA932C4F
:1001F00004FB0C542705029D4FEA065847EA1637C0
:10020000B5EB08056EEB070C870E920E47EA8117D7
:1002100042EA8312A7FB0201B6EB0B0164EB000478
:100220002B0D43EA0C335E1844EB1C50DA46514662
:10023000E7FB0201C5F313044FEA0B3343EA1453FF
:100240004FEA0432019C43EA0603A4F10C04029431
:10025000009CCDE900B400F0D4F803B0BDE8F08F05
:1002600000200146F9E796230022114600F08CB8E1
:100270000EB540F2334102910021CDE900110A464A
:100280000B4600F0BEF803B000BD00F0004230F0B5
:1002900000400AD0C10D01F56071C0F3160042EABA
:1002A0000151C208400711437047002001467047C2
:1002B00001F0004330B421F0004150EA010206D0C1
:1002C0000A0DA2F56072C1F31301002A02DC30BCF2
:1002D00000207047440F44EAC104C100E01830BC5C
:1002E00000EBC25000F047B830B50B460146002085
:1002F0002022012409E021FA02F59D4205D303FAE8
:1003000002F5491B04FA02F52844151EA2F1010268
:10031000F1DC30BD2DE9F05F0546002092469B469A
:1003200088460646814640241BE02846414647460B
:100330002246FFF7F7FE53465A46C01A914110D3A2
:1003400011461846224600F003FA2D1A67EB010801
:100350004F4622460120002100F0FAF917EB000970
:100360004E41201EA4F10104DFDC484631462A46F6
:100370004346BDE8F09F0029A8BF7047401C4900D4
:1003800008BF20F00100704710B4B0FA80FC00FAFA
:100390000CF050EA010404BF10BC704749B1CCF125
:1003A000200421FA04F411FA0CF118BF01212143B1
:1003B0000843A3EB0C01CB1D4FEA00614FEA10206C
:1003C00042BF002010BC704700EBC350104400290E
:1003D000A4BF10BC7047401C490008BF20F00100BA
:1003E00010BC704710B5141E73F1000408DA401CED
:1003F00041F1000192185B411A4301D120F0010044
:1004000010BD2DE9F04D92469B4611B1B1FA81F233
:1004100002E0B0FA80F22032904600F099F90446EA
:100420000F4640EA0A0041EA0B0153465A46084388
:1004300013D0114653EA010019D0C8F140025046CA
:10044000FFF770FE05460E4650465946424600F0FC
:100450007FF9084305D0012004E020463946BDE875
:10046000F08D0020054346EAE0762C4337430A9896
:100470006305E40AA0EB08000022FD0A44EA4754A1
:100480000A3002D500200146E9E70105101969414B
:10049000DDE9084500196941BDE8F04DA2E72DE905
:1004A000FE4F804681EA0300C00F0C46009021F009
:1004B000004123F00045B8EB0200A94105D24046B7
:1004C000214690461C460B46024623F0004010434E
:1004D00047D0270DC7F30A00C3F30A510290401A10
:1004E000019040286BDAC3F3130040F4801B00989E
:1004F000924620B10023D2EB030A63EB0B0B019869
:100500005946C0F14002504600F022F906460D4619
:1005100050465946019A00F02AF910EB0800614153
:10052000002487EA115284EAE7731A4340D0009A04
:1005300062B3019A012A4FEA075215DC001B61EBF6
:1005400002014FF0004202EA0752CDE90042001CCE
:1005500041F5801132462B46FFF753FF03B0BDE84B
:10056000F08F40462146F9E7001B61EB0201001CB9
:1005700041F5801300185B412018A2F5001747EBE6
:10058000030140EAD570B6196D4111E06D084FEADC
:10059000360645EAC0754FEA0752001B61EB0201BF
:1005A000001C41F5801149084FEA30000019514103
:1005B00032462B4603B0BDE8F04FFFF713BF00985B
:1005C000012240000023D0EB020263EBE0730098AD
:1005D00021464FEAE074B8EB000061EB0401E9E763
:1005E00083F000435BE781F0004158E72DE9F04DCF
:1005F00081EA030404F0004B21F0004514464FF05B
:10060000000A23F0004150EA050220D054EA01021A
:100610001DD0C5F30A570246C5F31303C1F31300F7
:10062000C1F30A5640F4801543F48013A7EB060883
:10063000101BD64608F2FD3873EB050002D308F113
:10064000010801E092185B41B8F1000F03DA0020C5
:100650000146BDE8F08D00204FF480110646844627
:100660000EE0171B73EB050705D3121B63EB0503A5
:1006700006434CEA010C49084FEA300092185B41EE
:1006800050EA0107EDD152EA030012D082EA0400D9
:1006900083EA0501084305D0101BAB4106D20122B5
:1006A000002306E000224FF0004302E06FF0010259
:1006B00053101AEB06004CEB085110EB0A0041EB0B
:1006C0000B01BDE8F04DFFF78DBEC1F30A52C1F337
:1006D000130140F2FF3341F480119A4202DA002004
:1006E0000146704740F233439A42A2F2334202DCA1
:1006F0005242FFF717BD00F02BB8000030B5041EC2
:1007000071F1000404DB4FF00044404264EB01014E
:10071000141E73F1000405DB1C464FF000435242E7
:1007200063EB0403994208BF904230BD064C074D6D
:1007300006E0E06840F0010394E8070098471034B1
:10074000AC42F6D3FFF7D6FC085400082854000842
:10075000202A04DB203A00FA02F100207047914081
:10076000C2F1200320FA03F3194390407047202A76
:1007700006DBCB17203A41FA02F043EAE07306E0C9
:1007800041FA02F3D040C2F12002914008431946D9
:100790007047FEE7704710B54FF4805000F0F2F953
:1007A0004FF4005000F0EEF9BDE810404FF48040E7
:1007B00000F0E8B972B6FEE706490020C8610648B5
:1007C000016941F004010161016941F040010161E9
:1007D000704700005801002000200240064A002116
:1007E000D16106490A6942F002020A61486108695A
:1007F00040F040000861704758010020002002408E
:10080000044B0022DA61044A136943F001031361C7
:1008100001807047580100200020024010B50023DD
:1008200006E000BF30F8134021F813405B1C9BB278
:100830009342F7D310BD000014480022C168CB06D4
:10084000134904D5CA6942F00202CA611022C36882
:100850005B0705D5CB6943F00103CB6142F004028D
:10086000C369DB0707D0CB6943F00403CB61C169DF
:1008700021F00101C161A2F58071013901D0C2608E
:100880007047C16921F00101C16170470020024039
:100890005801002070B5054600F076FA0646114C66
:1008A00009E0681C07D025B100F06EFA801BA84251
:1008B00001D9032070BDE068C007F2D1E06880066E
:1008C00001D52020E060E068C00605D4E069C007DB
:1008D00002D1E068400703D5FFF7AEFF012070BDED
:1008E000002070BD00200240F0B585B015460F46CF
:1008F000064600F01FF900200490009040F2FF30FF
:1009000000EB4500800ACDE9026004A9684600F0CA
:1009100073F870B900240AE037F8142006EB44019C
:100920000023012000F0C6F818B9641CA4B2AC4240
:10093000F2D300F0B5F805B0F0BD000010B590F8A6
:1009400021100024022903D00421816301243DE009
:1009500001680A6822F00E020A6001680A6822F043
:1009600001020A601A4A0168914201D1012121E085
:10097000174A1432914201D110211BE0144A283247
:10098000914201D1891515E0114A3C32914201D1C1
:1009900089140FE00E4A5032914202D14FF4803157
:1009A00008E00B4A6432914202D14FF4801101E019
:1009B0004FF08071064A083A5160012180F82110F9
:1009C000002180F82010416B01B18847204610BDFE
:1009D0000800024070B5044600F0D6F90546601CD8
:1009E00002D004480078044400F0CEF9401BA04235
:1009F000FAD370BD040000202DE9F04705462648D3
:100A00000F460126017E01290FD001218146017682
:100A10002868DFF888804CF25034022808D0A246BB
:100A20002046FFF737FFA8B131E00220BDE8F0878C
:100A30002046FFF72FFF08BB0120FFF7BDFE204631
:100A4000FFF728FFD8F81010064621F00401C8F877
:100A500010101CE04FF0FF303860AC6811E0204609
:100A6000FFF7BCFE5046FFF715FFD8F81010060040
:100A700021F00201C8F8101001D03C6007E004F535
:100A80008064D5E9020100EB8120A042E7D8002173
:100A900089F818103046C9E75801002000200240AC
:100AA0000348016941F080010161002070470000A6
:100AB000002002402DE9F05F07461C4888460024CC
:100AC000017E15461E46012909D001218146017685
:100AD0004CF2503A5046FFF7DDFE18B122E00220FA
:100AE000BDE8F09F012F02D0022F00D00427D3468B
:100AF000DFF83CA0220128463146FFF713FB81B204
:100B000008EB4400FFF77CFE5846FFF7C3FEDAF817
:100B1000102022F00102CAF8102018B9641CE4B2B7
:100B2000BC42E7D3002289F81820D9E758010020F9
:100B300000200240064900200A69120607D5054A2E
:100B40004A60054A4A600969090600D501207047D4
:100B50000020024023016745AB89EFCD0849B0F57D
:100B6000804F08D0B0F5005F07D0B0F5805F01D1AD
:100B70000320087070470120FBE70220F9E700001E
:100B800000000020044910B50A68024202D0086043
:100B9000FFF7E4FF10BD0000140401402DE9F84FF9
:100BA000DFF8B8910024A9F1040B23460F2709F1BF
:100BB000040AABF1040EC9E00125A5402A40AA426F
:100BC0007DD1674ED1F804C0ACEB0608B44532D0F5
:100BD00014DCBCF1030F3AD009DCBCF1000F2AD0C1
:100BE000BCF1010F1CD0BCF1020F31D11DE0BCF1F2
:100BF000110F17D0BCF1120F2AD119E0B8F5881FD8
:100C000019D006DCB8F5803F15D0B8F5801F1FD18C
:100C100011E0B8F5001F0ED0B8F5041F18D10AE096
:100C2000CB6815E0CB681B1D12E0CB6808330FE0E2
:100C3000CB680C330CE08B682BB1012B4FF0080311
:100C400003D0456104E0042302E0056100E00023D5
:100C5000FF2A01D8064601E000F104064FEA8405A8
:100C600001D9A5F12005D6F8008007FA05FC28EA8D
:100C70000C0803FA05F548EA0508C6F800804D6837
:100C8000ED0062D5374DAE6946F00106AE61AD6943
:100C900024F0030605F001050095334D06EB050C25
:100CA000DCF80850A607360F07FA06F825EA08050B
:100CB000DFF8B880404503D14FF0000817E044E06A
:100CC000DFF8AC80404502D14FF001080FE0DFF8BB
:100CD000A480404502D14FF0020808E0DFF8988078
:100CE000404502D14FF0030801E04FF0040808FA34
:100CF00006F848EA0508CCF808804D68D9F8006085
:100D0000ED024D4601D5164300E096432E604D6836
:100D1000DAF80060AD02554601D5164300E096436F
:100D20002E604D68DBF80060AD035D4601D51643CB
:100D300000E096432E604D68DEF80060ED037546D6
:100D400001D5164300E096432E60641C0D682A46C8
:100D5000E5407FF431AFBDE8F88F000008040140A2
:100D60000000111000100240000001400008014086
:100D7000000C014000100140001401400AB1016163
:100D800070470904FBE700000148806870470000D5
:100D90000400002002488168027811448160704795
:100DA00004000020074810B5016841F010010160FF
:100DB000032000F075F80F2000F006F800F024F88A
:100DC000002010BD0020024070B50D4D04464FF4C8
:100DD0007A712878B1FBF0F00A490968B1FBF0F0AC
:100DE00000F0E0FC48B9102C07D200222146501E2A
:100DF00000F036F800206C6070BD012070BD00006E
:100E000004000020100000200C4808B5816941F062
:100E100001018161816901F001010091C16941F025
:100E20008051C161C06900F0805000900448416861
:100E300021F0E06141F00071416008BD0010024006
:100E400000000140002809DB00F01F020121914051
:100E50004009800000F1E020C0F800117047000058
:100E6000F0B40E4B1B680C46C3F30223C3F1070515
:100E7000042D00D90425191D072901D2002300E003
:100E8000DB1E012606FA05F1491E214099409E40CD
:100E9000761E16403143F0BC01F050BB0CED00E073
:100EA000064900F0070208684FF6FF03184040EAC1
:100EB0000220034A10430860704700000CED00E078
:100EC0000000FA052DE9F0470F46050061D0434EBA
:100ED000306800F00700B84209D2306820F00700FF
:100EE00038433060306800F00700B84251D12868BC
:100EF0003B4C810712D5400703D5606840F4E060A1
:100F000060602878000703D5606840F46050606036
:100F10006068A96820F0F000084360602878C00786
:100F200028D06868012810D02168022810D08907CD
:100F300000292EDA616821F0030101436160FFF7A7
:100F400023FF804641F288390DE021688903EFE7ED
:100F50008901EDE7FFF718FFA0EB0801494502D929
:100F60000320BDE8F0876068696800F00C00B0EB12
:100F7000810FEFD1306800F00700B8420BD930681C
:100F800020F0070038433060306800F00700B842B6
:100F900001D00120E5E72878400705D56068E968B9
:100FA00020F4E060084360602878000706D5606898
:100FB000296920F4605040EAC100606000F038F810
:100FC0006168084AC1F30311515CC84006490860D2
:100FD00006480068FFF7F8FE0020C2E70020024044
:100FE00000100240AE35000810000020080000206C
:100FF0000448054900684968044AC1F30221515C6C
:10100000C84070471000002000100240BE350008A4
:101010000448054900684968044AC1F3C221515C8B
:10102000C84070471000002000100240BE35000884
:101030000E4A51680E4801F00C03042B11D0082B06
:101040000FD10C48C1F38343C903C05C0AD5516872
:10105000084AC1F34041921E515C054A5043B0FB1F
:10106000F1F0704704494843704700000010024007
:1010700000127A009E35000800093D002DE9F84F66
:10108000040070D02078C04DC00749D06868C0F314
:101090008100012807D06868C0F38100022809D1C7
:1010A0006868C00306D52868800339D560680028C1
:1010B000E7D035E06068B0F5803F0BD010B1B0F5F7
:1010C000A02F11D0286820F480302860286820F4F0
:1010D000802002E0286840F480302860606890B189
:1010E000FFF752FE06460AE0286840F48020286098
:1010F000F0E700BFFFF748FE801B642873D828681C
:101100008003F7D50CE0FFF73FFE064605E000BF81
:10111000FFF73AFE801B6428F0D828688003F7D4D4
:1011200020789A4E80074FF001094FF0000839D51A
:10113000686810F00C0F07D06868C0F381000228BF
:1011400009D16868C00306D42868800714D52069CF
:10115000012808D110E02069B0B1C6F80090FFF76F
:1011600013FE074605E00AE1FFF70EFEC01B02284A
:10117000C4D828688007F7D52868616920F0F8008E
:1011800040EAC10028600DE0C6F80080FFF7FCFDD2
:10119000074604E0FFF7F8FDC01B022823D82868A3
:1011A0008007F7D4207800072CD57948A169D9B1F8
:1011B000C0F80090FFF7E8FD074604E0FFF7E4FD04
:1011C000C01B02280FD8686A8007F7D571484FF412
:1011D000FA510068B0FBF1F0009000BF0098411E8A
:1011E0000091FAD20EE080E0C0F80080FFF7CCFD5D
:1011F000074604E0FFF7C8FDC01B022875D8686ADF
:101200008007F7D42078400760D5E8690027C00040
:1012100008D4E86940F08050E861E869012700F0EF
:10122000805000905C480168C90513D4016883466A
:1012300041F480710160FFF7A7FD824606E000BF20
:10124000FFF7A2FDA0EB0A0064284ED8DBF80000EF
:10125000C005F5D5E06801280AD008B1052813D0EB
:10126000286A20F001002862286A20F0040002E0C9
:10127000286A40F001002862E06841F2883B98B19A
:10128000FFF782FD82460BE0286A40F004002862E6
:10129000EEE700BFFFF778FDA0EB0A0159455AD8E9
:1012A000286A8007F6D50CE0FFF76EFD824605E060
:1012B000FFF76AFDA0EB0A0159454CD8286A800760
:1012C000F6D41FB1E86920F08050E861E06988B386
:1012D0006968C1F38101022944D00228C6F8608000
:1012E00004D0FFF751FD044638E034E0FFF74CFD31
:1012F000074604E0FFF748FDC01B02282BD82868EA
:101300008001F7D4206AB0F5803F05D16868A168F4
:1013100020F4003008436860D4E908010843696894
:1013200021F4741108436860C6F86090FFF72CFD43
:10133000044606E025E000BFFFF726FD001B02285B
:1013400009D828688001F7D51BE000BFFFF71CFD16
:10135000001B022802D90320BDE8F88F286880010D
:10136000F4D40EE00128F7D06868226A00F48031D6
:10137000914204D1616A00F47010884201D00120CA
:10138000EAE70020E8E700000010024000004242C7
:1013900080044242100000200070004070470000AE
:1013A00038B50446006842688168C9434B0606D5D3
:1013B000CB0704D1D3435B0601D4216C05E08B0736
:1013C00008D4D3431B0605D4616C01B02046BDE8A8
:1013D000304008478B0601D54B0646D4D3439B06C5
:1013E00043D44B060AD494F85130032B3ED0636D9E
:1013F00043F004036365C36883680093890609D4D6
:10140000616D41F00101616581680091016821F021
:1014100040010160606D002827D02068416821F0FC
:10142000E0014160012084F85100900722D020683B
:10143000416821F003014160104DE06C40B145630B
:10144000E06CFFF77BFA18B1606D40F0400060651A
:10145000A06C002809D04563A06CFFF76FFA002844
:1014600003D0606D40F04000606538BDC1688068A1
:10147000009038BD2046FFF791FF38BD19220008C3
:1014800070B5040009D0606A002540B1256165612E
:10149000A56294F8510040B10CE0012070BD606875
:1014A000B0F5827FF4D0E561F2E784F85050204631
:1014B00000F040F8022084F851002068016821F013
:1014C00040010160A088218900F4827001F4044188
:1014D0000843A18901F400610843217C01F0020165
:1014E0000843217D01F001010843218B01F40071C3
:1014F0000843217F01F03801084394F8201001F0DF
:1015000080010843218D01F40051084321680860DF
:10151000A069042101EA1040216848602068C1697F
:1015200021F40061C1616565012084F8510000204B
:1015300070BD000030B585B0002400940194029481
:1015400003940068184988422BD11848816941F4F6
:1015500080518161816901F480510491816941F078
:10156000040181618069124D00F004000490A02004
:101570000090022001900320039069462846FFF75F
:101580000DFB4020CDE90004694628460294FFF790
:1015900005FB002211462320FFF762FC2320FFF702
:1015A00051FC05B030BD0000003001400010024089
:1015B000000801402DE9FF4F81B01D4693460446C7
:1015C0004FF001090E9EFFF7DFFB074694F851002C
:1015D0006168012806D0B1F5827F3CD1A168C9BB02
:1015E000042838D10298002871D0BBF1000FFBD03D
:1015F000002DF9D094F8500001282CD04FF0010AAA
:1016000084F850A094F85100042802D0052084F8F2
:1016100051004FF00008C4F85480C4F838B0E58792
:10162000A58702992163E586A586C4F84080C4F8A1
:10163000448020680168490603D4016841F04001F4
:101640000160E068B0F5006F606808D0F0B3012D6C
:1016500049D081E0FFE7022005B0BDE8F08F08B176
:10166000012D39D1206B21680088C860206B801C57
:101670002063E08E401EE0862EE0206881688907A6
:101680000FD5E18E69B1B9F1010F0AD1216B09883B
:10169000C160206B801C2063E08E401EE0864FF00E
:1016A000000920688168C9070CD0E18F51B1C0687A
:1016B000A16B0880A06B801CA063E08F401EE087B8
:1016C0004FF00109FFF760FBC01B01E00BE067E092
:1016D000B04201D3701C50D1E08E0028CDD1E08FF4
:1016E0000028CAD13EE0206B216800780873206B87
:1016F000401C2063E08E401EE0862DE0206881685B
:1017000089070FD5E18E69B1B9F1010F0AD1216BBB
:1017100009780173206B401C2063E08E401EE08638
:101720004FF0000920688168C9070CD0E18F51B1E2
:10173000C068A16B0870A06B401CA063E08F401EC6
:10174000E0874FF00109FFF71FFBC01BB04202D337
:10175000701C01D011E086B1E08E0028CED1E08F60
:101760000028CBD13A463146204600F05DFD50B10D
:101770002020606584F8508012E084F851A084F83D
:101780005080032068E7A06818B92068C1688068A5
:10179000009084F851A084F85080606D0028F1D04A
:1017A000012059E710B5401EB0F1807F01D3012020
:1017B00010BD4FF0E02460610F21601700F0BEFE05
:1017C0000020A06107202061002010BD70B504003A
:1017D00004D094F84100002510B106E0012070BD4E
:1017E00084F84050204600F023F8242084F841007B
:1017F0002068C16821F40051C160204600F0E4FD7A
:101800002068016921F4904101612068416921F05B
:101810002A0141612068C16841F40051C1606564DA
:10182000202084F8410084F842006563002070BDE8
:1018300070B586B000240094019402940394036868
:101840002648254E022103220515B3421ED1836985
:1018500043F480438361836903F480430493836981
:1018600043F00403836180691D4E00F0040004907E
:101870000802CDE90001039269463046FFF78EF970
:10188000CDE9005469463046029420E0154EB3423B
:101890001FD1C36943F48023C361C36903F4802368
:1018A0000493836943F0080383618069CDE90051A3
:1018B00000F00800CDE903200B4D69462846FFF7EC
:1018C0006DF9E814CDE90004694628460294FFF753
:1018D00065F906B070BD00000038014000100240FC
:1018E0000008014000480040000C01402DE9F84389
:1018F000044690F84100984616460D46202802D02E
:101900000220BDE8F88385B17EB10020606421200B
:1019100084F84100FFF738FAA6848146E684A0687F
:101920002027B0F5805F02D003E00120E9E72069BD
:1019300010B12E4600250EE000260CE08021204646
:1019400000F09EFDA8B9C6B116F8010B21684860E9
:10195000E08C401EE084E08C4B464FF00002CDF856
:1019600000800028EAD14FF04001204600F088FDB9
:1019700040B184F841700320C3E735F8020BC0F38F
:101980000800E3E784F841700020BAE7FEE770B58D
:101990000C46054600F098F820EA04012846BDE808
:1019A000704000F0B9B800002DE9FF5F0027FE2568
:1019B000DDF838A016468B468146B8460C2805D07F
:1019C000B9F10E0F05D11227102001E07727302042
:1019D000804647F08001022000F09EF8802104201C
:1019E000FFF7D5FF0021012000F096F880210A20A2
:1019F00000F086F8002405E01BF80410092000F030
:101A00008BF8641CB442F7D34946012000F084F8F7
:101A1000B9F10C0F03D180210D2000F071F8294E8F
:101A2000042000F051F80446761E04D0E00702D1ED
:101A300014EA080FF4D080210D20FFF7A8FF36B17B
:101A4000062000F041F810F01B0F0CD0FE2580217D
:101A50000C2000F055F80021012000F05DF804B0E2
:101A60002846BDE8F09F00253C40E00700D0FF2558
:101A7000B9F10C0FEBD10A2000F026F804460C2037
:101A800000F022F810F007004FEAC40104D0083932
:101A90000844AAF8000001E0AAF8001024B1122CB2
:101AA00004D91224002603E00124FBE7002605E008
:101AB000092000F009F803998855761CA642F7D34F
:101AC000C5E70000E093040070B57E2101EA400004
:101AD0000A4D40F08004002210212846FFF74EF9FD
:101AE000204600F089FB002000F086FB044601221E
:101AF00010212846FFF742F9204670BD000801403A
:101B000070B50C460546FFF7DFFF40EA04012846A2
:101B1000BDE87040AFF3008070B50E467E2101EA4B
:101B20004004094D002210212846FFF727F92046DE
:101B300000F062FB304600F05FFB2846BDE87040D5
:101B400001221021FFF71AB900080140F0B585B055
:101B5000002000900190029003902F48816941F08D
:101B600010018161816901F010010491816941F0E6
:101B700020018161816901F020010491816941F0B6
:101B800004018161816901F004010491816941F0DE
:101B9000080181618069214E00F008004FF4604423
:101BA0000490012221463046FFF7E8F81C4F01223D
:101BB0001B213846FFF7E2F800940124032569460B
:101BC00030460194CDE90245FEF7E8FFCDE9005427
:101BD00069463846CDE90245FEF7E0FF1820CDE919
:101BE00000040294694638460394FEF7D7FF4FF489
:101BF000E04000900B48CDE9010469460A48FEF731
:101C0000CDFF002211462820FFF72AF92820FFF7F0
:101C100019F905B0F0BD00000010024000100140AD
:101C20000008014000002110000C0140104810B5D0
:101C30000E4901604FF48271416000218160C160F2
:101C40004FF400720161C0E905121822C0E90721B2
:101C5000416281620A21C162FFF712FC002803D0B1
:101C6000BDE81040FEF7A6BD10BD000000300140E9
:101C7000700000200C4810B50A4901604FF4E131B2
:101C80004160002181600C22C160C0E904128161C1
:101C9000C161FFF79BFD002803D0BDE81040FEF7AF
:101CA00089BD10BD00380140C80000200C4810B5A7
:101CB0000A4901604FF4E1314160002181600C224A
:101CC000C160C0E904128161C161FFF77FFD002896
:101CD00003D0BDE81040FEF76DBD10BD00480040C8
:101CE00010010020FEE7FEE730B40021084B0A4651
:101CF0005FF0000003EBC004401CC0B262548028B7
:101D0000F8D3491CC9B20829F2D330BC00F0C2B8DC
:101D10007801002030B1012807D100215FF0A70031
:101D200000F06EB90021A620FAE7704710B558B14F
:101D3000012810D10021C02000F062F90021A0206C
:101D4000BDE8104000F05CB90021C82000F058F94F
:101D50000021A120F4E710BD30B5CC0801F0070345
:101D600001259D40EBB2064D05EBC005C808285C77
:101D70000AB1184302E063EA0000C043285530BDB1
:101D80007801002070B5424D4FF4005400222146E6
:101D90002846FEF7F3FFC820FEF71CFE012221466D
:101DA0002846FEF7EBFF0021AE2000F029F90021C4
:101DB000084600F025F90021102000F021F900214B
:101DC000402000F01DF90021812000F019F90021C8
:101DD000CF2000F015F90021A12000F011F9002119
:101DE000C82000F00DF90021A62000F009F900211B
:101DF000A82000F005F900213F2000F001F90021A2
:101E0000D32000F0FDF80021084600F0F9F8002189
:101E1000D52000F0F5F80021802000F0F1F8002135
:101E2000D92000F0EDF80021F12000F0E9F80021C0
:101E3000DA2000F0E5F80021122000F0E1F800219E
:101E4000DB2000F0DDF80021402000F0D9F800216F
:101E5000202000F0D5F80021022000F0D1F8002168
:101E60008D2000F0CDF80021142000F0C9F80021E9
:101E7000A42000F0C5F80021A62000F0C1F8FFF76B
:101E800033FFBDE870400021AF2000F0B9B800007A
:101E90000008014070B5114E002400BF04F1B000ED
:101EA000C0B2002100F0ACF80021084600F0A8F80C
:101EB0000021102000F0A4F85FF0000506EBC5003B
:101EC0000121005D00F09CF86D1CEDB2802DF5D372
:101ED000641CE4B2082CE1D370BD0000780100203E
:101EE0002DE9FC4F1C460E4682468B460190082B7E
:101EF0000DD0600700D0012000EBD40061084843FA
:101F0000C0B28146203AD0B2009000204BE00620BB
:101F1000F7E7082C13D00C2C18D0102C1BD0182C41
:101F200044D10098234900EBC00000BF01EB8001C1
:101F3000002711F80850E80712D00B9A13E0009818
:101F40001D4900EB400001EB4001F1E700981B49FF
:101F500000EB4000EAE71A49009801EB0011E7E7BF
:101F60000B9828B3002231465046FFF7F5FE761C49
:101F70007F1C6D08FFB2F6B2082FDCD30AF1010016
:101F800000F0FF0A082C0AD00199AAEB0100B0EB7F
:101F9000540F04D10BF108008A4600F0FF0B08F142
:101FA00001005E46C0B280464845B2D3BDE8FC8F12
:101FB0000122D8E752420008C6350008EE37000873
:101FC000623C00082DE9F8411E4615468846044645
:101FD000079F0BE03346414620460097FFF780FFFE
:101FE000082E0AD004EB5600C4B26D1C2A78A2F168
:101FF00020005E28EED9BDE8F881A41DE4B2F4E724
:102000002DE9F0471D4C054609B1012200E00022F0
:1020100001212046FEF7B2FE00220221A046204602
:10202000FEF7ACFE164F00244FF400494FF48046F3
:10203000002231463846FEF7A1FE280601D50122CE
:1020400000E0002249463846FEF798FE012231465C
:102050003846FEF793FE6806641C050EE4B2082CB1
:10206000E6D30122022144464046FEF787FE204681
:10207000BDE8F04701221146FEF780BE000801408E
:102080000010014003211420FFF781BC10B514207B
:10209000FFF71AFD800705D10321BDE81040142089
:1020A000FFF72EBD10BD70B50646082188B000248C
:1020B0000846FFF76CFC00210D20FFF72DFD802165
:1020C0000E20FFF764FC93208DF8040020208DF88B
:1020D000050006A801AB0090022219460C20FFF76C
:1020E00063FC05000DD1002101A8425C7254425CE2
:1020F000491C5440C9B20429F7D3405CA04200D027
:10210000FE2580210E20FFF7FBFC08B0284670BD9D
:1021100030B50C460546082187B00846FFF737FC66
:1021200007210D20FFF7F8FC03211420FFF7E8FC3E
:1021300006A801AB00908DF80450012219460C202E
:10214000FFF732FC002809D1BDF81810102905D17D
:102150009DF8041021709DF80510617007B030BD26
:1021600010B5204C012208212046FEF707FE022070
:10217000FEF730FC002208212046FEF7FFFD02207A
:10218000FEF728FC012208212046FEF7F7FD022079
:10219000FEF720FC0F210120FFF7BEFC0220FEF716
:1021A00019FC3D211120FFF7B7FC1E212D20FFF760
:1021B000B3FC00212C20FFF7AFFC8D212A20FFF774
:1021C000ABFC3E212B20FFF7A7FC40211520FFF799
:1021D000A3FCFFF757FF0220FEF7FCFBBDE8104011
:1021E000FFF754BF00080140704700000148FFF7A7
:1021F000D7B800007000002001B582B00A2000901E
:10220000012301AA02A90348FFF7D4F99DF80400AD
:102210000EBD00007000002010B5406A0021C1878B
:10222000C186FFF7BBF810BDF8B515460E460B4644
:10223000009204460122022100F010F840B9334612
:10224000002280212046009500F008F8002804D0E4
:10225000606D40F0200060650320F8BD2DE9F84373
:102260001E46914688460446089DFEF78DFD401B9C
:10227000351AFEF789FD074625480068C0F3CB30C4
:10228000684338E0701C37D0FEF77EFDC01BA842C3
:1022900003D215B1009860B32CE02068416821F0AA
:1022A000E00141606068B0F5827F0BD1A068B0F5B5
:1022B000004F02D0B0F5806F04D12068016821F092
:1022C00040010160A06AB0F5005F09D12068016893
:1022D00021F4005101602068016841F4005101605F
:1022E000012084F85100002084F850000320BDE84C
:1022F000F8830025401E00902068816838EA0100BC
:1023000004D000214945BDD10020F0E70121F9E7C3
:10231000100000207047FEF73DBD30B58FB028217A
:102320006846FDF716FF14210AA8FDF712FF0121E8
:102330000804CDE900100024029402250491CDE99F
:1023400007504FF4E01009906846FEF797FE08B179
:1023500072B6FEE70F20CDE90A054FF48060CDE9A3
:102360000C4002210AA80E94FEF7ACFD002801D013
:1023700072B6FEE70FB030BD704701680C3151E80E
:10238000002F22F4907241E80023002BF5D1016860
:10239000143151E8002F22F0010241E80023002B04
:1023A000F5D1016B012909D101680C3151E8002FE9
:1023B00022F0100241E80023002BF5D1202180F803
:1023C000421000210163704770B50446006801693E
:1023D000E26821F44051114301612169A06808437A
:1023E000616908432168CA6841F20C639A43024359
:1023F000CA6020684169A26921F4407111434161BA
:102400001E492068884202D1FEF702FE01E0FEF775
:10241000EFFD00EBC00101EB001260686421800059
:10242000B2FBF0F3B3FBF1F36FF018067343B2FBAA
:10243000F0F5B2FBF0F605EB8305322303EB05154F
:10244000B5FBF1F5B6FBF1F605F0F00505EB061569
:10245000B2FBF0F6B2FBF0F0B0FBF1F06FF0180257
:10246000504306EB800003EB0010B0FBF1F0216855
:1024700000F00F002844886070BD00000038014063
:102480002DE9F843984617460D460446089E24E079
:10249000701C22D0FEF778FCA0EB0800B0421AD8DE
:1024A000CEB12068C168490717D5802D15D0402DC1
:1024B00013D00168C94309070FD40168002540689B
:1024C00000902046FFF759FF0820606484F84050D0
:1024D0000120BDE8F8830320FBE72068006835EAA7
:1024E000000004D00020B842D2D00020F1E7012043
:1024F000F9E7FEE70FB4054B10B503A9044A0298AB
:1025000000F0EEF810BC5DF814FB0000192E000876
:102510006C0000200FB4084B10B504A902AA039860
:1025200000F0DEF8044602A9002000F070FC20460E
:1025300010BC5DF814FB00000F2E00080907090EFF
:10254000002804DB00F1E02080F80014704700F060
:102550000F0000F1E02080F8141D704702E008C869
:10256000121F08C1002AFAD170477047002001E00D
:1025700001C1121F002AFBD1704700002DE9FF5F47
:10258000DDE90220010DDDF838B0024318D044F631
:102590001050A1F2FF3141430D140F98012820D0B3
:1025A000A5EB0B00401C5FEA000A4FF00004474E09
:1025B000DFF81C91A046504616D5CAF1000728E066
:1025C0000F98012443A2012808D0002100980F9BF6
:1025D000C0E90021C0E90243BDE8FF9F6FEA0B019B
:1025E000F4E7CBF10000DEE7074612E0F80707D07A
:1025F0002246334640464946FDF7C3FD804689469C
:102600002246334610461946FDF7BBFD04460E46EA
:102610007F10002FEAD1DDE90201BAF1000F424636
:102620004B4602DAFDF7ADFD01E0FDF7DFFF0446A2
:102630000E460022284BFEF761F803D84FF0FF301A
:10264000014607E00022254B20463146FDF727FFD3
:10265000FEF73BF8102409E0002C0ADB0A220023D5
:10266000FDF758FE019B30321A55641E50EA0102F4
:10267000F2D1641C019AC4F1110314440F9A012A87
:1026800003D0012208430DD10AE0084304D0002002
:102690004FF0110B0F9080E7A3EB0B056D1E0DE0C3
:1026A0005B4504DD4FF0000205F1010504E003DAAB
:1026B0004FF00002A5F10105002AECD000980F9917
:1026C000C0E90231C0E9004586E70000000024406F
:1026D0000000F03F300000000000F0430000E03F49
:1026E0002DE9FF4F95B09B468946064600250FE22F
:1026F000252877D100242746F84A0121059400E0D7
:10270000044316F8013F203B01FA03F01042F7D1D1
:1027100030782A2811D06FF02F033078A0F13002E2
:10272000092A16D8059A44F0020402EB820203EB50
:1027300042021044761C0590EFE759F8042B0592ED
:10274000002A03DA504244F40054059044F0020495
:10275000761C30782E2816D116F8010F44F00404A8
:102760002A280DD06FF02F023078A0F13003092B0A
:1027700009D807EB870302EB4303C718761CF3E77E
:1027800059F8047B761C30786C280FD006DC4C2876
:1027900017D068280DD06A2814D104E0742810D00E
:1027A0007A280FD10DE044F400140AE044F48014B8
:1027B00001E044F440147278824202D104F580149E
:1027C000761C761C307866280BD013DC582877D01E
:1027D00009DC002875D04528F6D04628F4D04728D3
:1027E0001AD19DE118E0632835D0642879D0652896
:1027F00012D195E1702873D008DC6728F1D06928E0
:102800006FD06E280DD06F2806D1B5E073282CD07C
:10281000752875D0782874D05A46179990476D1C42
:1028200075E1C4F30250022809D003280DD0D9F86D
:10283000001004280DD00D6009F1040967E1D9F8F2
:102840000010EA17C1E90052F6E7D9F800100D8030
:10285000F2E70D70F0E719F8041B8DF80010002066
:102860008DF80100EA46012003E059F804AB4FF06F
:10287000FF3061074FF0000102D40DE008F10101C3
:102880008846B9420FDA8045F8DB1AF808100029AB
:10289000F4D108E008F1010188468142FADB1AF818
:1028A00008100029F6D105985B46A0EB08072146E1
:1028B0003846179A00F094FA284400EB080507E020
:1028C0004DE029E10DE01AF8010B5A46179990479F
:1028D000B8F10108F7D25B4621463846179A13E152
:1028E00042E00A220092C4F302524FF0000A022A88
:1028F00008D059F804CB032A4FEAEC710AD00DE056
:1029000029E02AE009F1070121F00702F2E802C1FB
:10291000914609E00FFA8CFC4FEAEC71042A03D1CE
:102920004FFA8CFC4FEAEC71002907DA0A460021C5
:10293000DCF1000C61EB02012D2202E0220504D53E
:102940002B228DF80420012203E0E20701D020228F
:10295000F7E7904659E00A2102E010220DE010212D
:102960004FF0000A00910BE010224FF0000A44F0F3
:1029700004040827009203E008224FF0000A0092A6
:10298000C4F30252022A05D059F804CB0021032ACD
:1029900008D009E009F1070121F00702F2E802C1BD
:1029A000914605E01FFA8CFC042A01D10CF0FF0CC3
:1029B0004FF00008220728D5702806D0009B83F02E
:1029C000100353EA0A0305D00EE040228DF80420DC
:1029D000012208E05CEA010206D030228DF80420D2
:1029E0008DF8050002229046009B83F0080353EA0D
:1029F0000A030AD15CEA010201D1620705D530223F
:102A00008DF804204FF001087F1E582804D034A010
:102A100003900EA802900DE036A0F9E753466046F9
:102A2000009AFDF777FC84460398825C0298401E6A
:102A3000029002705CEA0100F0D1029806A9081A1F
:102A400000F1200A600702D524F4803400E0012759
:102A5000574502DDA7EB0A0000E0002000EB0A0169
:102A6000009005984144401A0590E00306D45B4667
:102A70002146179A059800F0B3F90544002706E0AF
:102A800001A85A46C05D179990476D1C7F1C4745A9
:102A9000F6DBE0030CD55B462146179A059800F05B
:102AA0009FF9054404E030205A46179990476D1C61
:102AB0000099481E00900029F5DC08E00298029970
:102AC0005A460078491C0291179990476D1CBAF13B
:102AD0000001AAF1010AF1DC65E10000092801000A
:102AE0003031323334353637383961626364656684
:102AF0000000000030313233343536373839414246
:102B0000434445460000000000F058F90544761C97
:102B1000307800287FF4ECAD19B02846BDE8F08F7E
:102B2000620700D4062709F1070222F0070CFCE82F
:102B30000223E14603F000485FEA080C02D00FF2DE
:102B4000702C0DE05FEA045C02D50FF2682C07E000
:102B50005FEAC47C02D00FF2602C01E0AFF2700C8F
:102B60004FF0FF3823F00043CDF850C065280CD05B
:102B700006DC452809D046281DD047283DD13DE038
:102B8000662818D067287ED138E00021112F01DB9C
:102B9000112000E0781CCDE9000106A90EA8FFF77E
:102BA000EDFCDDE90F010E9A03910021009207F17F
:102BB000010A04914DE04FF000400097CDE901106B
:102BC00006A90EA8FFF7DAFCDDE90F0203920E9BBF
:102BD00011990022DDF80CA00093049211B9791C20
:102BE00000EB010AB7EB0A0004D4C0F1FF3007F193
:102BF000010A0490AAEB0700019044E0012F00DADB
:102C000001270021112F01DD112000E03846CDE918
:102C1000000106A90EA8FFF7B1FCDDE90F010E9A2D
:102C20000391002104910092BA4621070CD4039924
:102C3000514500DA8A46BAF1010F05DD009AAAF182
:102C40000101515C302908D0B84202DA10F1040FBA
:102C500006DA0121CDE9011015E0AAF10101E9E749
:102C6000002805DC049901440491AAEB000102E06C
:102C7000411C514500DD8A460499401A401C0190D0
:102C80004FF000400290200704D40198504501DB2A
:102C9000CDF8048000208DF84F0002980DF14F0709
:102CA000B0F1004F25D02B200E9002984FF0020873
:102CB00000280CDA404202902D200E9007E00A21F5
:102CC0000298FDF711FB3031029007F8011DB8F1B1
:102CD0000001A8F10108F2DC02980028EFD1791E6A
:102CE0000E980870307800F0200040F0450007F89A
:102CF000020D12A8C01B00F107081498007800B15B
:102D0000012000EB0A01019801EBE07105984144B4
:102D1000401A401E0590E00306D45B462146179AF0
:102D2000059800F05DF805441498007818B15A46EB
:102D3000179990476D1CE00324D55B462146179AEE
:102D4000059800F04DF805441CE00498002807DBC6
:102D5000DDE90301884203DD0098405C179901E03A
:102D6000179930205A469047049805F10105401CF8
:102D700004900198401E019004D12E205A461799C4
:102D800090476D1CBAF10001AAF1010ADDDC05E0F3
:102D900017F8010B5A46179990476D1CB8F10001BE
:102DA000A8F10108F4DC5B462146179A0598ABE6CA
:102DB0002D0000002B000000200000002DE9F04154
:102DC000044600251E461746880404D405E039460B
:102DD0002020B0476D1C641EF9D52846BDE8F0815F
:102DE0002DE9F041044600251E469046C80301D552
:102DF000302700E02027880404D505E04146384606
:102E0000B0476D1C641EF9D52846BDE8F0810A68FC
:102E1000531C0B601070704713B54FF6FF730122FF
:102E200069460248FEF762FD00981CBDC8000020FC
:102E3000F0B58DB000265A4D06960796019602967B
:102E40000396049603272E704FF49670FDF7C2FD8B
:102E50000124082353A20A210F200094FFF7B2F89F
:102E60003A4655A102A8FFF755FB102302AA1E21DE
:102E70003C200094FFF7A6F8FFF70CF8287801280B
:102E800004D12E706420FDF7A5FD7F1E287802284E
:102E900004D12E706420FDF79DFD7F1C2878032847
:102EA000D7D12E70FEF720FF0A21082344A208463E
:102EB0000094FFF787F8FEF7EDFF082345A23221C3
:102EC0000A200094FFF77EF8FEF7E4FF1E2110238E
:102ED00046A208460094FFF775F8FEF7DBFFC8200E
:102EE000FDF778FD1E21102342A208460094FFF74B
:102EF00069F8FEF7CFFFC820FDF76CFD08A9522046
:102F0000FFF706F930B1FFF72BF9FFF7BBF8FFF732
:102F1000BDF8DBE701A8FFF7C6F89DF807000090B1
:102F20009DF806309DF805209DF8041033A0FFF7AA
:102F3000E1FA384C002500BF05EB450004EB4000EA
:102F4000042201A9FDF710F920B16D1C042DF3DB5B
:102F50000DB0F0BD30A0FFF7CDFA05EB450004EB56
:102F6000400004228780A088ADF818006089ADF881
:102F70001A00208AADF81C00E08AADF81E0006A9F0
:102F80002748FDF7B1FC9DF8070000909DF806303A
:102F90009DF805209DF8041018A0FFF7ABFAD7E7BD
:102FA00000000020706C6561736520696E70757437
:102FB00020707269636500002530326400000000F3
:102FC000617070726F616368204E46432063617266
:102FD00064000000456E7375726520627574746FCD
:102FE0006E2063616E63656C00000000203C3C3E17
:102FF0003E2000003C3C20203E3E00002530327840
:103000002025303278202530327820253032782043
:103010000D0A0000540000207965730D0A000000BD
:1030200000F800081CB5FDF7BDFEFFF776F9FEF7C6
:103030008DFDFEF7FBFDFEF71DFEFEF737FEFEF7EA
:10304000A1FE0020FEF766FE0020FEF76FFEFEF7F1
:103050004BFEFFF785F8FFF715F8FFF717F8042286
:1030600069460948FDF7DAFB0848BDF80010818081
:10307000BDF802104181BDF804100182BDF80610B0
:10308000C18200F0ABF9FEE700F800085400002010
:103090002DE9F04D9CB0002510952F460E950B950F
:1030A0000C95142106A80D95FDF753F8DFF8E8A15B
:1030B000DFF8E8B14FF001084446102378A20A2156
:1030C0000F20CDF80080FEF77DFF082378A2322183
:1030D00050200094FEF776FF1E21102376A20846AA
:1030E0000094FEF76FFFFEF7D5FEC820FDF772FCD7
:1030F0001E21102372A208460094FEF763FFFEF71C
:10310000C9FEC820FDF766FC9AF8000003280BD022
:1031100015A95220FEF7FCFFB0B1FFF721F8FEF72A
:10312000B1FFFEF7B3FFC7E7002455468AF8004019
:103130004FF4C870FDF74EFCFEF7D6FD2C7000F082
:10314000EBF81CB0BDE8F08D0EA8FEF7ACFF002434
:103150005D4804EB440100EB4106042231460EA811
:10316000FDF702F8F0B9B28858A10BA8FFF7D2F921
:10317000FEF7BAFD1E2110230BAA0846CDF80080E9
:10318000FEF720FFFEF786FEB0880E99384487B21E
:103190000BEB85006D1C01604FF47A70FDF71AFC93
:1031A000FEF7A2FD641C042CD2DB47490422083937
:1031B0000EA8FCF7D9FF98B901201090FEF794FDF6
:1031C0001E21082344A20846CDF80080FEF7FAFE2F
:1031D000FEF760FE4FF47A70FDF7FCFBFEF784FD0E
:1031E00039490422091F0EA8FCF7BEFF00289AD116
:1031F00010980028384608D0FDF73AF83A4A3B4B79
:10320000FCF7BFFFFDF754F801E0FDF72CF80024B0
:1032100046461A9018E000BF0BEB890112A8CB7844
:103220008A78CDE900234B781BF8292030A1FFF7DD
:1032300071F9E006010E082312AA00200096FEF79D
:10324000C1FEFEF727FE641CAC42E5DB4FF4FA64D6
:103250002046FDF7BFFBFEF747FD1A98FDF715F86E
:1032600002460B4627A106A8FFF754F9FEF73CFDDE
:103270001E21082306AA08460096FEF7A3FE4FF675
:10328000FF73142206A92348FEF730FBFEF702FE67
:103290002046FDF79FFB0FE700000020F805002007
:1032A0005761697420466F72204E6561720000009C
:1032B00053657474696E6700203C3C3E3E200000FC
:1032C0003C3C20203E3E00005400002070726963A8
:1032D000653A253034780000646973636F756E74E5
:1032E00020636172640000009A9999999999E93F65
:1032F00025303278253032782530327825303278D2
:1033000000000000736574746C656D656E743A2519
:103310002E32660010010020F8B500242646254D07
:1033200002E00CB1012000E000200090082322A25E
:103330000A210F20FEF746FE012C01D0012000E0FB
:1033400000200090082321A21E210F20FEF73AFE44
:10335000FEF7A0FD2878012807D12E706420FDF724
:1033600039FB641C012C00DD00242878022806D1DA
:103370002E706420FDF72EFB641E00D501242878F2
:103380000328CED12E704FF49670FDF723FB14B1B5
:10339000012C04D109E0FEF7A7FCFFF749FDFEF779
:1033A000A3FCBDE8F840FFF773BEBDE8F840FEF7A8
:1033B0009BBC0000000000207365742070726F6475
:1033C0007563742070726963650000006261636BED
:1033D00020746F20686F6D65000000002DE9F04FCC
:1033E000DFF8888185B00025D8F82C000B24604ECA
:1033F000019002900390A946A8F1080B01270DF156
:10340000040A04900A2110235AA208460097FEF7E6
:10341000D9FD3078012804D0022813D0032822D007
:1034200072E04FF49670FDF7D5FA86F800900B2CF9
:1034300006D0641E01D51DB10A2458F8241061E09D
:103440000924FAE74FF49670FDF7C4FA86F8009065
:103450000B2C03D0641C1DB10A2CEEDD0024ECE71C
:10346000092CFBDCE9E74FF49670FDF7B3FA86F818
:1034700000900A2C2DD00BF805406D1C5946032DE9
:103480003DDD00200A5C0B2A2CD0401C0428F9DB0F
:1034900036490422091F081FFCF766FE40B3FEF7F9
:1034A00023FC102337A2009728211E20FEF78AFD57
:1034B000FEF7F0FC4FF47A70FDF78CFAFEF714FC7F
:1034C000D8F82C000B240025019002900390049062
:1034D00098E7D8F82C000B244AF825006D1E4AF80E
:1034E000250011E0FEF700FC102329A20097DBE77E
:1034F000FEF7FAFBFFF7CCFD05B0BDE8F08FD8F87A
:103500002C100B244AF825100DB1012000E00020FA
:103510000090102328211E20019AFEF753FD012D53
:1035200001D0012000E0002000901023282132204B
:10353000029AFEF747FD022D01D0012000E0002095
:103540000090102328214620039AFEF73BFD032D0F
:1035500001D0012000E000200090102328215A20F3
:10356000049AFEF72FFDFEF795FC4BE71C000020A8
:103570000000002041646D696E2050617373776FA5
:103580007264200070696E206572726F72000000B4
:1035900070696E206572726F72730000010202031F
:1035A0000405060708090A0B0C0D0E0F1010000089
:1035B00000000000000001020304060708090000E3
:1035C0000000010203040000000000000000002FC2
:1035D000000000000700070000147F147F1400247F
:1035E0002A7F2A12006264081323003649552250AC
:1035F00000000503000000001C22410000004122E1
:103600001C000014083E08140008083E08080000CA
:1036100000A06000000808080808000060600000C2
:10362000002010080402003E5149453E0000427F40
:103630004000004261514946002141454B3100188C
:1036400014127F10002745454539003C4A4949304E
:103650000001710905030036494949360006494908
:10366000291E000036360000000056360000000813
:1036700014224100001414141414000041221408F0
:1036800000020151090600324959513E007C1211D5
:10369000127C007F49494936003E41414122007F6A
:1036A0004141221C007F49494941007F0909090124
:1036B000003E4149497A007F0808087F0000417FA9
:1036C0004100002040413F01007F08142241007F5B
:1036D00040404040007F020C027F007F0408107FC2
:1036E000003E4141413E007F09090906003E41512B
:1036F000215E007F091929460046494949310001E8
:10370000017F0101003F4040403F001F2040201F3B
:10371000003F4038403F00631408146300070870FE
:10372000080700615149454300007F4141000055B1
:103730002A552A55000041417F000004020102047D
:10374000004040404040000001020400002054546A
:103750005478007F484444380038444444200038BA
:103760004444487F00385454541800087E0901022C
:103770000018A4A4A47C007F080404780000447D01
:103780004000004080847D00007F1028440000003D
:10379000417F4000007C04180478007C0804047811
:1037A00000384444443800FC2424241800182424FD
:1037B00018FC007C080404080048545454200004F9
:1037C0003F444020003C4040207C001C2040201C06
:1037D000003C4030403C004428102844001CA0A07D
:1037E000A07C004464544C441414141414140000B9
:1037F000000000000000000000000000FC000000CD
:10380000000002000000000C020C0200000000009A
:10381000000090D0BCD0BC9000030003000018242E
:10382000FE448C000302070201001824D8B04C802B
:10383000000300010201C038E438E0000102020187
:103840000202080600000000000000000000000066
:1038500000F80402000000010204000204F8000065
:103860000004020100009060F86090000000010078
:1038700000002020FC2020000000010000000000CB
:10388000000000000806000000002020202020008A
:103890000000000000000000000000000002000026
:1038A00000000080601C0200040300000000F80417
:1038B0000404F8000102020201000008FC000000FC
:1038C00000020302000018844424180003020202CC
:1038D000020008042424D80001020202010040B0C2
:1038E00088FC80000000000302003C242424C40063
:1038F000010202020100F824242CC000010202028D
:1039000001000C04E41C0400000003000000D824A3
:103910002424D80001020202010038444444F80083
:10392000000302020100000010000000000002007D
:103930000000000020000000000006000000002041
:1039400050880402000000000102909090909000C6
:103950000000000000000002048850200002010066
:1039600000001804C4241800000002000000F8043D
:10397000E494F80001020202020000E09CF08000E2
:1039800002030000030204FC2424D8000203020204
:103990000100F80404040C0001020202010004FC0E
:1039A0000404F80002030202010004FC24740C0069
:1039B00002030202030004FC24740C000203020050
:1039C0000000F0080444CC4000010202010004FCA5
:1039D0002020FC040203000003020404FC04040091
:1039E000020203020200000404FC040406040403AF
:1039F000000004FC24D00C0402030200030204FCB7
:103A000004000000020302020203FC3CC03CFC0074
:103A100003000300030004FC30C4FC0402030200A2
:103A20000300F8040404F80001020202010004FC8F
:103A300024241800020302000000F8848404F80023
:103A400001020207050004FC24649800020302003E
:103A50000302182424448C000302020201000C0417
:103A6000FC040C0000020302000004FC0000FC0443
:103A7000000102020100047C80E01C04000003003D
:103A800000001CE03CE01C00000300030000049C5C
:103A9000609C0400020300030200041CE01C0400FC
:103AA0000002030200000C84641C040002030202F2
:103AB00003000000FE020200000007040400000EE4
:103AC00030C00000000000010200000202FE000001
:103AD00000040407000000040204000000000000CD
:103AE00000000000000000000808080808080000A6
:103AF000020000000000000000000040A0A0C00084
:103B000000010202030204FC2020C00000030202A4
:103B1000010000C02020600000010202020000C07D
:103B20002024FC0000010202030200C0A0A0C0008B
:103B30000001020202000020F82424040002030213
:103B400002000040A0A0602000070A0A0A0404FC4A
:103B50002020C0000203020003020020E400000055
:103B6000000203020000000020E40000080808072B
:103B7000000004FC80E02020020302000302040491
:103B8000FC000000020203020200E020E020C0006E
:103B900003000300030020E02020C0000203020015
:103BA000030200C02020C00000010202010020E04A
:103BB0002020C000080F0A02010000C02020E00001
:103BC0000001020A0F0820E040202000020302004A
:103BD00000000060A0A020000002020203000020FC
:103BE000F820000000000102020020E00020E000B8
:103BF00000010202030220E0208060200000030197
:103C000000006080E080600000030003000020608E
:103C10008060200002030003020020E0208060207A
:103C20000808070100000020A06020000002030235
:103C30000200000020DE0200000000070400000077
:103C400000FF00000000000F00000002DE20000066
:103C5000000407000000020102040402000000004A
:103C60000000000000000000000000000000000054
:103C70000000000000F800000000000000333000E9
:103C8000000000100C06100C0600000000000000F0
:103C9000000040C07840C0784000043F04043F0466
:103CA0000400007088FC08300000001820FF211E6E
:103CB0000000F008F000E018000000211C031E21A5
:103CC0001E0000F00888700000001E212324192720
:103CD000211010160E00000000000000000000007F
:103CE0000000000000E01804020000000007182097
:103CF000400000020418E000000000402018070007
:103D00000000404080F0804040000202010F0102AC
:103D10000200000000F0000000000101011F01018D
:103D20000100000000000000000080B070000000F2
:103D3000000000000000000000000001010101017E
:103D40000101000000000000000000303000000011
:103D500000000000000080601804006018060100E8
:103D6000000000E010080810E000000F10202010F4
:103D70000F00001010F8000000000020203F20205D
:103D800000000070080808887000003028242221F4
:103D900030000030088888483000001820202011AA
:103DA0000E000000C02010F8000000070424243F8B
:103DB000240000F808888808080000192120201134
:103DC0000E0000E0108888180000000F112020115C
:103DD0000E0000380808C83808000000003F000046
:103DE00000000070880808887000001C2221212231
:103DF0001C0000E010080810E00000003122221131
:103E00000F00000000C0C0000000000000303000C3
:103E10000000000000800000000000008060000042
:103E2000000000008040201008000001020408107B
:103E3000200040404040404040000404040404048A
:103E40000400000810204080000000201008040238
:103E50000100007048080808F0000000003036013A
:103E60000000C030C828E810E000071827242314F9
:103E70000B000000C038E0000000203C23020227B5
:103E8000382008F8888888700000203F2020201102
:103E90000E00C0300808080838000718202020103D
:103EA000080008F808080810E000203F2020201033
:103EB0000F0008F88888E8081000203F2020232001
:103EC000180008F88888E8081000203F2000030048
:103ED0000000C03008080838000007182020221E03
:103EE000020008F808000008F808203F210101211D
:103EF0003F20000808F8080800000020203F20208C
:103F0000000000000808F8080800C08080807F00DA
:103F1000000008F888C028180800203F2001263833
:103F2000200008F8080000000000203F202020208A
:103F3000300008F8F800F8F80800203F003F003F84
:103F4000200008F830C00008F808203F20000718BB
:103F50003F00E01008080810E0000F10202020109B
:103F60000F0008F808080808F000203F21010101AF
:103F70000000E01008080810E0000F182424385052
:103F80004F0008F8888888887000203F2000030CC4
:103F900030200070880808083800003820212122CD
:103FA0001C00180808F8080818000000203F20002E
:103FB000000008F808000008F808001F2020202052
:103FC0001F000878880000C83808000007380E0174
:103FD0000000F80800F80008F800033C0700073C60
:103FE0000300081868808068180820302C03032C10
:103FF00030200838C800C83808000000203F2000E2
:10400000000010080808C8380800203826212020A1
:104010001800000000FE020202000000007F404085
:104020004000000C30C00000000000000001063815
:10403000C00000020202FE000000004040407F007D
:104040000000000004020202040000000000000062
:104050000000000000000000000080808080808060
:104060008080000202040000000000000000000048
:10407000000000008080808000000019242222229D
:104080003F2008F8008080000000003F1120201130
:104090000E000000008080800000000E1120202013
:1040A0001100000000808088F800000E1120201010
:1040B0003F200000808080800000001F22222222FA
:1040C0001300008080F0888888180020203F20207E
:1040D00000000000808080808000006B94949493A6
:1040E000600008F8008080800000203F2100002050
:1040F0003F2000809898000000000020203F2020F2
:104100000000000000809898000000C08080807F40
:10411000000008F8000080808000203F24022D303D
:104120002000000808F8000000000020203F2020A8
:1041300000008080808080808000203F20003F2021
:10414000003F8080008080800000203F2100002010
:104150003F200000808080800000001F2020202061
:104160001F00808000808000000080FFA1202011BF
:104170000E000000008080808000000E112020A032
:10418000FF80808080008080800020203F212000F0
:1041900001000000808080808000003324242424DB
:1041A0001900008080E0808000000000001F2020B7
:1041B00000008080000000808000001F2020201070
:1041C0003F20808080000080808000010E30080643
:1041D000010080800080008080800F300C030C3054
:1041E0000F0000808000808080000020312E0E3182
:1041F0002000808080000080808080818E70180682
:10420000010000808080808080000021302C2221ED
:10421000300000000000807C020200000000003F2F
:10422000404000000000FF00000000000000FF0010
:1042300000000002027C800000000040403F0000BF
:10424000000000060101020204040000000000005A
:10425000000000000000000000000000000000005E
:10426000000000000000000000000000000000004E
:104270000000000000000000000000F0F0F000006E
:1042800000000000000000017F01000000000000AD
:104290000000001C1C1C0000000000008060301C9E
:1042A0008C60301C0C0000000000000000000000CA
:1042B00000000000000000000000000000000000FE
:1042C00000E00000000000E000000086E69F868617
:1042D0008686E69F860000011F01010101011F0182
:1042E0000100000080C06020F820E0C00000000055
:1042F00003070C18FF70E18100000000070F101089
:104300007F100F0700008060206080000000E02028
:1043100000000F3020309F70DC371030C0000000EC
:10432000100E03000718101807000000C02020E03E
:10433000C0000000000080E01F38E88703C43C0490
:104340000000070F1810100B070D10100800008058
:104350008C4C38000000000000000000000000004D
:10436000000000000000000000000000000000004D
:10437000000000000000000080E0300804000000A1
:10438000000000FEFF01000000000000000000002F
:10439000030F1820400000040830E08000000000F7
:1043A00000000000000001FFFE00000000000040CF
:1043B00020180F03000000000000000000000000B3
:1043C000C00000000000004266663C18FF183C6612
:1043D0006642000000000000030000000000000032
:1043E00000000000800000000000001010101010FD
:1043F000FF1010101010000000000000030000006B
:1044000000000000000000000000000000000000AC
:104410000000000000000000000000808C4C38000C
:10442000000000000000000000000000000000008C
:1044300000000010101010101010101010000000DC
:10444000000000000000000000000000000000006C
:10445000000000000000000000000000000000005C
:10446000000000001C1C1C000000000000000000F8
:10447000000000000000E0380C0000000000807028
:104480001C03000000000060380E01000000000066
:104490000000000080C060202060C080000000FE9E
:1044A000FF010000000001FFFE000001070E1810D0
:1044B00010180E0701000000808080C0E00000009E
:1044C00000000000000000FFFF00000000000000EE
:1044D0001010101F1F10101000000080402020201E
:1044E0002060C080000000030300804020381F07C8
:1044F0000000001C1A1918181818181F0000008056
:10450000C020202060C080000000000303001010C5
:10451000182FE780000000070F10101010180F0769
:104520000000000000000000C0E0F000000000C03B
:10453000B088868180FFFF808000000000000010AE
:10454000101F1F1010000000E0606060606060607D
:10455000000000003F1008080818F0E00000000705
:104560000B101010101C0F030000000080C0402032
:104570002020E0C0000000FCFF211008080818F00F
:10458000E0000001070C18101010080F03000000D5
:10459000C0E06060606060E0600000000300000058
:1045A000E0180700000000000000001F1F000000CE
:1045B00000000080C0602020202060C080000087B4
:1045C000EF2C1818303068CF830000070F08101048
:1045D0001010180F07000000C0C020202020C0804D
:1045E0000000001F3F604040402010FFFE00000020
:1045F0000C1C101010080F03000000000000000049
:1046000000000000000000000000000E0E0E000080
:10461000000000000000001C1C1C00000000000046
:104620000000000000000000000000000000000C7E
:104630000C000000000000000000005838000000DE
:10464000000000000000000000804020100000007A
:10465000102844820100000000000000000000005B
:10466000010204081000000000000000000000002B
:104670000000008484848484848484848400000012
:10468000000000000000000000000000102040803A
:10469000000000000000000000000000018244282B
:1046A000100000001008040201000000000000C01B
:1046B00020201010101030E0C0000003030000F0B4
:1046C00010080C070300000000001C1C1C00000068
:1046D0000000000000C0406020202040C00000FC1E
:1046E000FF01F00E03C1FE03807F0001070E0811D9
:1046F0001110110904020000000080E0E000000039
:1047000000000000807C4340477FF88000001018C4
:104710001F1000000000131F1C1020E0E0202020CC
:104720002060C080000000FFFF10101010182FE75D
:104730008000101F1F1010101010180F070000002D
:1047400080C0402020202060E00000FCFF0100002D
:104750000000000001000001070E181010100804EE
:10476000030020E0E02020202040C080000000FF67
:10477000FF000000000001FFFE00101F1F101010BE
:1047800018080E07010020E0E020202020202060F3
:10479000800000FFFF101010107C00000000101FB0
:1047A0001F10101010101018060020E0E02020202C
:1047B00020206060800000FFFF101010107C0000BF
:1047C0000100101F1F10000000000000000000008A
:1047D00080C06020202040E0000000FCFF010000BD
:1047E0004040C0C140400001070E181010100F0FCC
:1047F000000020E0E0200000000020E0E02000FFBA
:10480000FF101010101010FFFF00101F1F100000ED
:104810000000101F1F100000202020E0E0202020BA
:1048200000000000000000FFFF000000000000008A
:104830001010101F1F10101000000000000020209A
:1048400020E0E020202000000000000000FFFF002A
:1048500000000060E0808080C07F3F00000020E01A
:10486000E020000020A06020200000FFFF30187C26
:10487000E3C000000000101F1F10000001131F1CE8
:10488000181020E0E020000000000000000000FF01
:10489000FF000000000000000000101F1F1010109B
:1048A00010101018060020E0E0E000000000E0E03A
:1048B000E02000FF013FFEC0E01E01FFFF00101FCF
:1048C0001000031F0300101F1F1020E0E0C00000B5
:1048D00000000020E02000FF0003071C78E08000BB
:1048E000FF00101F100000000000030F1F00000059
:1048F00080C060202060C080000000FEFF0100003A
:10490000000000FFFE000001070E181010180C0731
:10491000010020E0E0202020202060C0800000FF77
:10492000FF2020202020301F0F00101F1F1000002C
:10493000000000000000000080C060202060C080F7
:10494000000000FEFF010000000000FFFE0000016B
:10495000070E1111133C7C67210020E0E02020208D
:10496000202060C0800000FFFF101030F0D0080F42
:104970000700101F1F10000000030F1C1010008004
:10498000C060202020204040E00000070F0C1818D5
:10499000303060E08100001F0C0810101010180F5C
:1049A00007008060202020E0E020202060800100BF
:1049B000000000FFFF000000000100000000101FC9
:1049C0001F100000000020E0E02000000000002098
:1049D000E02000FFFF00000000000000FF000007D3
:1049E0000F1810101010100807002060E0E02000E1
:1049F000000020E060200000077FF88000807C033A
:104A0000000000000000071F1C070000000020E05D
:104A1000E02000E0E0200020E0200007FFF8E01F99
:104A2000FFFCE01F00000000031F0300011F030044
:104A30000000002060E0A0000020E06020000000F6
:104A400000038F7CF8C6010000000010181E130040
:104A500001171F1810002060E0E02000000020E097
:104A60006020000001073EF8E01807000000000089
:104A70000010101F1F101000000000806020202078
:104A800020A0E0E0200000000000C0F03E0F030086
:104A9000000000101C1F1710101010180600000056
:104AA000000000FC0404040404000000000000FFF7
:104AB00000000000000000000000007F4040404077
:104AC0004000000010E000000000000000000000B6
:104AD0000000031C608000000000000000000000D7
:104AE00000030C70800000000404040404FC0000B7
:104AF000000000000000000000FF000000000000B7
:104B000040404040407F0000000000000010080CC2
:104B1000040C08100000000000000000000000006D
:104B20000000000000000000000000000000000085
:104B30000000000000000000000000000000000075
:104B40000000000000008080808080808080808065
:104B5000808000000004040808000000000000003D
:104B60000000000000000000000000000000000045
:104B70000000000000000000000000000000000035
:104B80000000000098D844642424FCF80000000FC2
:104B90001F18101010081F1F10180020E0F0000050
:104BA0000000000000000000FFFF180804040CF8DB
:104BB000F00000001F0F18101010180F0300000065
:104BC0000000000000000000000000E0F8180404ED
:104BD000043C3800000000030F0C101010100806F1
:104BE00000000000000000000020E0F0000000E0F5
:104BF000F81C04040408FFFF000000030F18101045
:104C000010081F0F08000000000000000000000056
:104C100000000000E0F8484444444C787000000074
:104C2000030F0C181010100804000000000080C0D2
:104C3000602020E0C00000040404FFFF040404041A
:104C40000000000010101F1F1010100000000000D6
:104C500000000000000000000000000070F88C045C
:104C6000048CF874040C007076CF8D8D8D89C87813
:104C700070000020E0F000000000000000000000D4
:104C8000FFFF08040404FCF8000000101F1F1000C0
:104C900000101F1F100000000000006060000000F6
:104CA00000000000040404FCFC0000000000000000
:104CB0001010101F1F101010000000000000000056
:104CC00000606000000000000000040404FCFC0020
:104CD00000000000C0C08080C07F3F0000000020B6
:104CE000E0F000000000000000000000FFFF80C0B6
:104CF000F41C0404000000101F1F1100031F1C10EF
:104D000010000000202020E0F00000000000000063
:104D1000000000FFFF000000000000001010101F46
:104D20001F10101000000000000000000000000034
:104D3000000004FCFC0804FCFC0804FCFC00101F40
:104D40001F10001F1F10001F1F1000000000000098
:104D50000000000000000004FCFC08080404FCF84B
:104D6000000000101F1F100000101F1F1000000087
:104D70000000000000000000000000E0F0180C043B
:104D8000040C18F0E00000030F0C101010100C0FB2
:104D9000030000000000000000000000000000040C
:104DA000FCFC080404040CF8F0000080FFFF88906D
:104DB00010101C0F030000000000000000000000A5
:104DC000000000E0F81C04040408F8FC00000003E4
:104DD0000F1810109088FFFF8000000000000000F6
:104DE000000000000000040404FCFC100804040C93
:104DF0000C001010101F1F10101000000000000009
:104E00000000000000000000000000003078CCC46A
:104E10008484840C1C0000001E1810101011190F3F
:104E200006000000000000C00000000000000004B8
:104E30000404FFFF040404000000000000000F1F32
:104E40001010100C00000000000000000000000026
:104E500000000004FCFE00000004FCFE0000000056
:104E60000F1F181010081F0F08000000000000009E
:104E700000000000000000040C3CFCC40000C43C26
:104E80000C0400000000010F1E0E010000000000D5
:104E900000000000000000000000043CFCC400E42E
:104EA0007CFC84807C040000071F070000071F07AC
:104EB00000000000000000000000000000000004EE
:104EC000041C7CE4C0341C0404000010101C1601F7
:104ED000131F1C181000000000000000000000005C
:104EE000000000040C3CFCC400C43C0404000000AE
:104EF000C080C1370E01000000000000000000006B
:104F000000000000000000001C0404C4F47C1C0429
:104F100000000000101C1F17111010180E000000D8
:104F20000000000000F80C04000000000000001069
:104F300028EF00000000000000000000003F60407B
:104F40000000000000000000FF0000000000000062
:104F500000000000FF000000000000000000000052
:104F6000FF00000000000000040CF800000000003A
:104F7000000000000000EF2810000000000000000A
:104F800040603F000000000000000018060202041C
:104F90000810202030080000000000000000000081
:104FA0000000000000000000000000000000000001
:104FB000F010101010FF10101010F0000000000092
:104FC0000F04040404FF040404040F000000404024
:104FD000405F555555755555555F40404000004060
:104FE000200F094989790909090F2040000000FEB6
:104FF00002424ACA4A4ACA4A4A4202FE000000FF26
:1050000040504C4340404F50505C40FF0000000077
:10501000F888888888FF88888888F8000000000061
:105020001F080808087F888888889F80F000808291
:105030008282828282E2A2928A868280800000003E
:1050400000000040807F0000000000000000101001
:1050500010FF109008888888FF888888080004441A
:10506000827F01808040432C102846818000001000
:10507000101010D030FF30D0121C1010000010089B
:105080000402010000FF00000102040810000404F3
:105090000484E43C2724242424E4040404000402BB
:1050A0000100FF0909090949897F0000000000FE8D
:1050B000225A8600FE9292929292FE00000000FF19
:1050C00004080700FF4020030C1422414000008028
:1050D00040201806800007182040800000000100D2
:1050E00020702826212020243860000101000010B3
:1050F00012929292929292121202FE00000000000E
:10510000003F101010103F0040807F0000000000A2
:1051100000C080808080808080FC8480808080804F
:1051200080C0C0000000000000FF7F4040404040C1
:1051300040FF40404040404040FF7F0000000000F2
:105140000000000000000000007F70000000000070
:10515000000000000000000000000000000000004F
:105160000000000000FCF80000000000000000004B
:1051700000000000000000000000FFFE020202022A
:105180000202020202FFFF02020202020202020205
:10519000FF0300000000000000001F1F04040404BF
:1051A0000404040404FFFF040404040404040404C9
:1051B0001F000000000000000000000000000000D0
:1051C00000000000007F3F00000000000000000021
:1051D00000000000000000000000000000000000CF
:1051E00000000000000000000000000000000000BF
:1051F000000000F8F8F0F07020000000000000004F
:10520000000000000000000000000000000000009E
:10521000000000000000000000000000000080000E
:10522000000000000000000000000000000000007E
:10523000000000FFFFFFFF00000000000000000072
:10524000000000000000000000008080000000005E
:10525000000000000000000000000000000000FF4F
:10526000FFFE0606060606060606060606060606ED
:10527000060606FFFFFFFF060606060606060606EA
:10528000060606060606060606FFFFFFFF070200E3
:10529000000000000000000000000000000000FF0F
:1052A000FFFF000000000000000000000000000000
:1052B000000000FFFFFFFF000000000000000000F2
:1052C000000000000000000000FFFFFFFF000000E2
:1052D000000000000000000000000000000000FFCF
:1052E000FFFF181818181818181818181818181870
:1052F000181818FFFFFFFF18181818181818181892
:10530000181818181818181818FFFFFFFF000000C9
:10531000000000000000000000000000000002018A
:10532000010000000000000000000000000000007C
:10533000000000FFFFFFFF00000000000000000071
:10534000000000000000000000010100000000005B
:10535000000000000000000000000000000000004D
:10536000000000000000000000000000000000003D
:10537000000000FFFFFFFF00000000000000000031
:10538000000000000000000000000000000000001D
:10539000000000000000000000000000000000000D
:1053A00000000000000000000000000000000000FD
:1053B0000000001F1F0F0F00000000000000000091
:1053C00000000000000000000000000000000000DD
:1053D000000000000000000030000000310000006C
:1053E00032000000330000003400000035000000EF
:1053F00036000000370000003800000039000000CF
:105400003C0000005F00000028540008000000205D
:10541000700000005C25000898540008700000200F
:10542000F00900006C2500080000000001000000E9
:10543000100000000000000000127A0000000000D0
:1054400000000000D8530008DC530008E0530008B7
:10545000E4530008E8530008EC530008F053000838
:10546000F4530008F8530008FC53000800540008E7
:1054700004540008D2C7B20513D08608542B1D056A
:105480000000031C1A050000AE411D05000051B3C9
:085490001905000000000000F6
:04000005080000ED02
:00000001FF
