:020000040800F2
:10000000E8090020010100087B17000821140008FE
:100010007917000827020008871F00080000000069
:10002000000000000000000000000000A91D000802
:1000300029020008000000007D1C0008AB1D00081C
:100040001B0100081B0100081B0100081B01000820
:100050001B0100081B0100081B0100081B01000810
:100060001B0100081B0100081B0100081B01000800
:100070001B0100081B0100081B0100081B010008F0
:100080001B0100081B0100081B0100081B010008E0
:100090001B0100081B0100081B0100081B010008D0
:1000A0001B0100081B0100081B0100081B010008C0
:1000B0001B0100081B0100081B0100081B010008B0
:1000C0001B0100081B0100081B010008811C00081F
:1000D0001B0100081B0100081B0100081B01000890
:1000E0002B0200081B0100081B010008DFF80CD0E0
:1000F00000F078F80048004779260008E809002059
:100100000648804706480047FEE7FEE7FEE7FEE7B1
:10011000FEE7FEE7FEE7FEE7FEE7FEE70D1E00084E
:10012000ED000008202A04DB203A21FA02F0002129
:10013000704721FA02F3D040C2F1200291400843F7
:1001400019467047D2B201E000F8012B491EFBD2DC
:1001500070470022F6E710B513460A4604461946D2
:10016000FFF7F0FF204610BD30B5044600200346DF
:1001700000E05B1C934203D2E05CCD5C401BF8D0F6
:1001800030BD2DE9F05F0546002092469B4688462B
:100190000646814640241BE0284641464746224603
:1001A000FFF7C0FF53465A46C01A914110D311467B
:1001B0001846224600F028F82D1A67EB01084F4632
:1001C00022460120002100F01FF817EB00094E41E4
:1001D000201EA4F10104DFDC484631462A4643468E
:1001E000BDE8F09F064C074D06E0E06840F00103D3
:1001F00094E8070098471034AC42F6D3FFF77AFF33
:100200005849000878490008202A04DB203A00FAFF
:1002100002F1002070479140C2F1200320FA03F35D
:10022000194390407047FEE7704710B54FF4805077
:1002300000F0F2F94FF4005000F0EEF9BDE8104084
:100240004FF4804000F0E8B972B6FEE7064900209E
:10025000C8610648016941F004010161016941F08A
:100260004001016170470000480100200020024069
:10027000064A0021D16106490A6942F002020A6178
:100280004861086940F0400008617047480100205B
:1002900000200240044B0022DA61044A136943F053
:1002A00001031361018070474801002000200240D3
:1002B00010B5002306E000BF30F8134021F81340CA
:1002C0005B1C9BB29342F7D310BD00001448002280
:1002D000C168CB06134904D5CA6942F00202CA615B
:1002E0001022C3685B0705D5CB6943F00103CB61DE
:1002F00042F00402C369DB0707D0CB6943F0040373
:10030000CB61C16921F00101C161A2F580710139A0
:1003100001D0C2607047C16921F00101C16170471D
:10032000002002404801002070B5054600F076FA32
:100330000646114C09E0681C07D025B100F06EFAA2
:10034000801BA84201D9032070BDE068C007F2D12C
:10035000E068800601D52020E060E068C00605D492
:10036000E069C00702D1E068400703D5FFF7AEFFA0
:10037000012070BD002070BD00200240F0B585B0A6
:1003800015460F46064600F01FF900200490009025
:1003900040F2FF3000EB4500800ACDE9026004A97D
:1003A000684600F073F870B900240AE037F81420AA
:1003B00006EB44010023012000F0C6F818B9641CC4
:1003C000A4B2AC42F2D300F0B5F805B0F0BD000025
:1003D00010B590F821100024022903D00421816374
:1003E00001243DE001680A6822F00E020A600168FB
:1003F0000A6822F001020A601A4A0168914201D19A
:10040000012121E0174A1432914201D110211BE051
:10041000144A2832914201D1891515E0114A3C3223
:10042000914201D189140FE00E4A5032914202D11B
:100430004FF4803108E00B4A6432914202D14FF40C
:10044000801101E04FF08071064A083A51600121A5
:1004500080F82110002180F82010416B01B18847FD
:10046000204610BD0800024070B5044600F0D6F9E1
:100470000546601C02D004480078044400F0CEF920
:10048000401BA042FAD370BD040000202DE9F047C4
:10049000054626480F460126017E01290FD001217D
:1004A000814601762868DFF888804CF250340228B3
:1004B00008D0A2462046FFF737FFA8B131E002205E
:1004C000BDE8F0872046FFF72FFF08BB0120FFF7AC
:1004D000BDFE2046FFF728FFD8F81010064621F091
:1004E0000401C8F810101CE04FF0FF303860AC6811
:1004F00011E02046FFF7BCFE5046FFF715FFD8F885
:100500001010060021F00201C8F8101001D03C6064
:1005100007E004F58064D5E9020100EB8120A042E8
:10052000E7D8002189F818103046C9E748010020B3
:10053000002002400348016941F080010161002070
:1005400070470000002002402DE9F05F07461C487C
:1005500088460024017E15461E46012909D0012146
:10056000814601764CF2503A5046FFF7DDFE18B155
:1005700022E00220BDE8F09F012F02D0022F00D020
:100580000427D346DFF83CA0220128463146FFF776
:10059000C9FD81B208EB4400FFF77CFE5846FFF727
:1005A000C3FEDAF8102022F00102CAF8102018B9B0
:1005B000641CE4B2BC42E7D3002289F81820D9E7D2
:1005C0004801002000200240064900200A69120666
:1005D00007D5054A4A60054A4A600969090600D5F7
:1005E000012070470020024023016745AB89EFCD11
:1005F0000849B0F5804F08D0B0F5005F07D0B0F5DE
:10060000805F01D10320087070470120FBE70220C2
:10061000F9E7000000000020044910B50A68024212
:1006200002D00860FFF7E4FF10BD00001404014091
:100630002DE9F84FDFF8B8910024A9F1040B234607
:100640000F2709F1040AABF1040EC9E00125A5400A
:100650002A40AA427DD1674ED1F804C0ACEB06080F
:10066000B44532D014DCBCF1030F3AD009DCBCF144
:10067000000F2AD0BCF1010F1CD0BCF1020F31D108
:100680001DE0BCF1110F17D0BCF1120F2AD119E0F7
:10069000B8F5881F19D006DCB8F5803F15D0B8F53D
:1006A000801F1FD111E0B8F5001F0ED0B8F5041F50
:1006B00018D10AE0CB6815E0CB681B1D12E0CB68AF
:1006C00008330FE0CB680C330CE08B682BB1012BA7
:1006D0004FF0080303D0456104E0042302E0056104
:1006E00000E00023FF2A01D8064601E000F10406DD
:1006F0004FEA840501D9A5F12005D6F8008007FA54
:1007000005FC28EA0C0803FA05F548EA0508C6F8CE
:1007100000804D68ED0062D5374DAE6946F00106A8
:10072000AE61AD6924F0030605F001050095334D77
:1007300006EB050CDCF80850A607360F07FA06F89A
:1007400025EA0805DFF8B880404503D14FF00008DE
:1007500017E044E0DFF8AC80404502D14FF00108DB
:100760000FE0DFF8A480404502D14FF0020808E016
:10077000DFF89880404502D14FF0030801E04FF0C8
:10078000040808FA06F848EA0508CCF808804D681D
:10079000D9F80060ED024D4601D5164300E09643BE
:1007A0002E604D68DAF80060AD02554601D516435B
:1007B00000E096432E604D68DBF80060AD035D46B7
:1007C00001D5164300E096432E604D68DEF80060C8
:1007D000ED03754601D5164300E096432E60641C78
:1007E0000D682A46E5407FF431AFBDE8F88F000080
:1007F00008040140000011100010024000000140F8
:1008000000080140000C01400010014000140140AC
:100810000AB1016170470904FBE7000001488068E4
:1008200070470000040000200248816802781144EB
:100830008160704704000020074810B5016841F04E
:1008400010010160032000F075F80F2000F006F899
:1008500000F024F8002010BD0020024070B50D4DBE
:1008600004464FF47A712878B1FBF0F00A49096820
:10087000B1FBF0F000F0E0FC48B9102C07D20022E8
:100880002146501E00F036F800206C6070BD01203B
:1008900070BD000004000020100000200C4808B5C6
:1008A000816941F001018161816901F001010091DB
:1008B000C16941F08051C161C06900F08050009071
:1008C0000448416821F0E06141F00071416008BDD9
:1008D0000010024000000140002809DB00F01F0268
:1008E000012191404009800000F1E020C0F8001192
:1008F00070470000F0B40E4B1B680C46C3F3022394
:10090000C3F10705042D00D90425191D072901D2BB
:10091000002300E0DB1E012606FA05F1491E2140F6
:1009200099409E40761E16403143F0BC01F050BB0A
:100930000CED00E0064900F0070208684FF6FF03DF
:10094000184040EA0220034A104308607047000044
:100950000CED00E00000FA052DE9F0470F46050018
:1009600061D0434E306800F00700B84209D23068C9
:1009700020F0070038433060306800F00700B842CC
:1009800051D128683B4C810712D5400703D56068D8
:1009900040F4E06060602878000703D5606840F4A8
:1009A000605060606068A96820F0F00008436060F3
:1009B0002878C00728D06868012810D0216802284C
:1009C00010D0890700292EDA616821F00301014364
:1009D0006160FFF723FF804641F288390DE021680E
:1009E0008903EFE78901EDE7FFF718FFA0EB0801A6
:1009F000494502D90320BDE8F0876068696800F0C6
:100A00000C00B0EB810FEFD1306800F00700B84266
:100A10000BD9306820F0070038433060306800F0B0
:100A20000700B84201D00120E5E72878400705D546
:100A30006068E96820F4E060084360602878000797
:100A400006D56068296920F4605040EAC100606002
:100A500000F038F86168084AC1F30311515CC840DE
:100A60000649086006480068FFF7F8FE0020C2E764
:100A70000020024000100240FE2A00081000002062
:100A8000080000200448054900684968044AC1F389
:100A90000221515CC8407047100000200010024045
:100AA0000E2B00080448054900684968044AC1F350
:100AB000C221515CC8407047100000200010024065
:100AC0000E2B00080E4A51680E4801F00C03042B4F
:100AD00011D0082B0FD10C48C1F38343C903C05C6C
:100AE0000AD55168084AC1F34041921E515C054A3B
:100AF0005043B0FBF1F07047044948437047000091
:100B00000010024000127A00EE2A000800093D00A1
:100B10002DE9F84F040070D02078C04DC00749D0AF
:100B20006868C0F38100012807D06868C0F38100BD
:100B3000022809D16868C00306D52868800339D522
:100B400060680028E7D035E06068B0F5803F0BD0E2
:100B500010B1B0F5A02F11D0286820F480302860A3
:100B6000286820F4802002E0286840F48030286063
:100B7000606890B1FFF752FE06460AE0286840F42C
:100B800080202860F0E700BFFFF748FE801B642844
:100B900073D828688003F7D50CE0FFF73FFE0646C0
:100BA00005E000BFFFF73AFE801B6428F0D82868F4
:100BB0008003F7D420789A4E80074FF001094FF058
:100BC000000839D5686810F00C0F07D06868C0F3CA
:100BD0008100022809D16868C00306D4286880070C
:100BE00014D52069012808D110E02069B0B1C6F8F9
:100BF0000090FFF713FE074605E00AE1FFF70EFE3F
:100C0000C01B0228C4D828688007F7D52868616906
:100C100020F0F80040EAC10028600DE0C6F800802E
:100C2000FFF7FCFD074604E0FFF7F8FDC01B0228B4
:100C300023D828688007F7D4207800072CD5794876
:100C4000A169D9B1C0F80090FFF7E8FD074604E0BC
:100C5000FFF7E4FDC01B02280FD8686A8007F7D5AC
:100C600071484FF4FA510068B0FBF1F0009000BFFA
:100C70000098411E0091FAD20EE080E0C0F800809A
:100C8000FFF7CCFD074604E0FFF7C8FDC01B0228B4
:100C900075D8686A8007F7D42078400760D5E8697E
:100CA0000027C00008D4E86940F08050E861E86996
:100CB000012700F0805000905C480168C90513D4FA
:100CC0000168834641F480710160FFF7A7FD824609
:100CD00006E000BFFFF7A2FDA0EB0A0064284ED893
:100CE000DBF80000C005F5D5E06801280AD008B19E
:100CF000052813D0286A20F001002862286A20F015
:100D0000040002E0286A40F001002862E06841F235
:100D1000883B98B1FFF782FD82460BE0286A40F0DD
:100D200004002862EEE700BFFFF778FDA0EB0A01A0
:100D300059455AD8286A8007F6D50CE0FFF76EFDB2
:100D4000824605E0FFF76AFDA0EB0A0159454CD841
:100D5000286A8007F6D41FB1E86920F08050E86166
:100D6000E06988B36968C1F38101022944D002288F
:100D7000C6F8608004D0FFF751FD044638E034E047
:100D8000FFF74CFD074604E0FFF748FDC01B0228B3
:100D90002BD828688001F7D4206AB0F5803F05D1B0
:100DA0006868A16820F4003008436860D4E908014D
:100DB0000843696821F4741108436860C6F86090BC
:100DC000FFF72CFD044606E025E000BFFFF726FDF7
:100DD000001B022809D828688001F7D51BE000BF56
:100DE000FFF71CFD001B022802D90320BDE8F88F85
:100DF00028688001F4D40EE00128F7D06868226AE0
:100E000000F48031914204D1616A00F4701088428C
:100E100001D00120EAE70020E8E7000000100240CE
:100E20000000424280044242100000200070004056
:100E30007047000038B50446006842688168C943BD
:100E40004B0606D5CB0704D1D3435B0601D4216CF6
:100E500005E08B0708D4D3431B0605D4616C01B0B1
:100E60002046BDE8304008478B0601D54B0646D4E6
:100E7000D3439B0643D44B060AD494F85130032B3A
:100E80003ED0636D43F004036365C36883680093D9
:100E9000890609D4616D41F00101616581680091A5
:100EA000016821F040010160606D002827D02068B2
:100EB000416821F0E0014160012084F85100900771
:100EC00022D02068416821F003014160104DE06CA0
:100ED00040B14563E06CFFF77BFA18B1606D40F0FC
:100EE00040006065A06C002809D04563A06CFFF746
:100EF0006FFA002803D0606D40F04000606538BD97
:100F0000C1688068009038BD2046FFF791FF38BD6A
:100F1000AD1C000870B5040009D0606A002540B11E
:100F200025616561A56294F8510040B10CE0012093
:100F300070BD6068B0F5827FF4D0E561F2E784F8B7
:100F40005050204600F040F8022084F851002068FC
:100F5000016821F040010160A088218900F48270BD
:100F600001F404410843A18901F400610843217C94
:100F700001F002010843217D01F001010843218BAA
:100F800001F400710843217F01F03801084394F80F
:100F9000201001F080010843218D01F40051084325
:100FA00021680860A069042101EA104021684860B6
:100FB0002068C16921F40061C1616565012084F880
:100FC0005100002070BD000030B585B000240094B1
:100FD0000194029403940068184988422BD1184860
:100FE000816941F480518161816901F480510491EA
:100FF000816941F0040181618069124D00F00400B3
:101000000490A020009002200190032003906946E4
:101010002846FFF70DFB4020CDE90004694628462D
:101020000294FFF705FB002211462320FFF762FC24
:101030002320FFF751FC05B030BD00000030014017
:1010400000100240000801402DE9FF4F81B01D460D
:10105000934604464FF001090E9EFFF7DFFB07465B
:1010600094F851006168012806D0B1F5827F3CD127
:10107000A168C9BB042838D10298002871D0BBF1FF
:10108000000FFBD0002DF9D094F8500001282CD08F
:101090004FF0010A84F850A094F85100042802D0BF
:1010A000052084F851004FF00008C4F85480C4F8BB
:1010B00038B0E587A58702992163E586A586C4F83F
:1010C0004080C4F8448020680168490603D4016860
:1010D00041F040010160E068B0F5006F606808D041
:1010E000F0B3012D49D081E0FFE7022005B0BDE853
:1010F000F08F08B1012D39D1206B21680088C860BC
:10110000206B801C2063E08E401EE0862EE020686D
:10111000816889070FD5E18E69B1B9F1010F0AD154
:10112000216B0988C160206B801C2063E08E401E0B
:10113000E0864FF0000920688168C9070CD0E18F74
:1011400051B1C068A16B0880A06B801CA063E08FC8
:10115000401EE0874FF00109FFF760FBC01B01E074
:101160000BE067E0B04201D3701C50D1E08E002844
:10117000CDD1E08F0028CAD13EE0206B21680078F5
:101180000873206B401C2063E08E401EE0862DE03B
:101190002068816889070FD5E18E69B1B9F1010F27
:1011A0000AD1216B09780173206B401C2063E08E0B
:1011B000401EE0864FF0000920688168C9070CD006
:1011C000E18F51B1C068A16B0870A06B401CA06397
:1011D000E08F401EE0874FF00109FFF71FFBC01BA7
:1011E000B04202D3701C01D011E086B1E08E00281D
:1011F000CED1E08F0028CBD13A463146204600F0D0
:101200005DFD50B12020606584F8508012E084F8C4
:1012100051A084F85080032068E7A06818B92068BE
:10122000C1688068009084F851A084F85080606D97
:101230000028F1D0012059E710B5401EB0F1807FA1
:1012400001D3012010BD4FF0E02460610F21601731
:1012500000F0BEFE0020A06107202061002010BD2C
:1012600070B5040004D094F84100002510B106E0E8
:10127000012070BD84F84050204600F023F824205F
:1012800084F841002068C16821F40051C160204603
:1012900000F0E4FD2068016921F4904101612068BB
:1012A000416921F02A0141612068C16841F400517F
:1012B000C1606564202084F8410084F842006563C1
:1012C000002070BD70B586B0002400940194029493
:1012D000039403682648254E022103220515B342D4
:1012E0001ED1836943F480438361836903F480439F
:1012F0000493836943F00403836180691D4E00F009
:10130000040004900802CDE90001039269463046CA
:10131000FFF78EF9CDE9005469463046029420E08B
:10132000154EB3421FD1C36943F48023C361C3691F
:1013300003F480230493836943F008038361806985
:10134000CDE9005100F00800CDE903200B4D6946BE
:101350002846FFF76DF9E814CDE9000469462846F0
:101360000294FFF765F906B070BD00000038014037
:10137000001002400008014000480040000C0140FD
:101380002DE9F843044690F84100984616460D466C
:10139000202802D00220BDE8F88385B17EB100206C
:1013A0006064212084F84100FFF738FAA684814662
:1013B000E684A0682027B0F5805F02D003E001201A
:1013C000E9E7206910B12E4600250EE000260CE06A
:1013D0008021204600F09EFDA8B9C6B116F8010B89
:1013E00021684860E08C401EE084E08C4B464FF062
:1013F0000002CDF800800028EAD14FF040012046DD
:1014000000F088FD40B184F841700320C3E735F84F
:10141000020BC0F30800E3E784F841700020BAE74C
:10142000FEE770B50C46054600F098F820EA040186
:101430002846BDE8704000F0B9B800002DE9FF5F14
:101440000027FE25DDF838A016468B468146B846B3
:101450000C2805D0B9F10E0F05D11227102001E09C
:1014600077273020804647F08001022000F09EF868
:1014700080210420FFF7D5FF0021012000F096F81D
:1014800080210A2000F086F8002405E01BF80410F3
:10149000092000F08BF8641CB442F7D349460120C0
:1014A00000F084F8B9F10C0F03D180210D2000F079
:1014B00071F8294E042000F051F80446761E04D03D
:1014C000E00702D114EA080FF4D080210D20FFF7C5
:1014D000A8FF36B1062000F041F810F01B0F0CD029
:1014E000FE2580210C2000F055F80021012000F09D
:1014F0005DF804B02846BDE8F09F00253C40E007B9
:1015000000D0FF25B9F10C0FEBD10A2000F026F82E
:1015100004460C2000F022F810F007004FEAC40146
:1015200004D008390844AAF8000001E0AAF8001025
:1015300024B1122C04D91224002603E00124FBE775
:10154000002605E0092000F009F803998855761C6B
:10155000A642F7D3C5E70000E093040070B57E21F2
:1015600001EA40000A4D40F0800400221021284684
:10157000FFF74EF9204600F089FB002000F086FBC3
:101580000446012210212846FFF742F9204670BD8B
:101590000008014070B50C460546FFF7DFFF40EA42
:1015A00004012846BDE87040AFF3008070B50E46D8
:1015B0007E2101EA4004094D002210212846FFF750
:1015C00027F9204600F062FB304600F05FFB28461A
:1015D000BDE8704001221021FFF71AB90008014050
:1015E000F0B585B0002000900190029003902F4844
:1015F000816941F010018161816901F0100104915C
:10160000816941F020018161816901F0200104912B
:10161000816941F004018161816901F00401049153
:10162000816941F0080181618069214E00F0080064
:101630004FF460440490012221463046FFF7E8F859
:101640001C4F01221B213846FFF7E2F800940124C9
:101650000325694630460194CDE90245FEF7E8FFCF
:10166000CDE9005469463846CDE90245FEF7E0FF72
:101670001820CDE900040294694638460394FEF729
:10168000D7FF4FF4E04000900B48CDE901046946D4
:101690000A48FEF7CDFF002211462820FFF72AF95D
:1016A0002820FFF719F905B0F0BD00000010024036
:1016B000001001400008014000002110000C014012
:1016C000104810B50E4901604FF48271416000214D
:1016D0008160C1604FF400720161C0E905121822F7
:1016E000C0E90721416281620A21C162FFF712FC51
:1016F000002803D0BDE81040FEF7A6BD10BD0000D5
:10170000003001405C0000200C4810B50A4901601F
:101710004FF4E1314160002181600C22C160C0E9D9
:1017200004128161C161FFF79BFD002803D0BDE871
:101730001040FEF789BD10BD00380140B400002004
:101740000C4810B50A4901604FF4E13141600021B5
:1017500081600C22C160C0E904128161C161FFF7A0
:101760007FFD002803D0BDE81040FEF76DBD10BD21
:1017700000480040FC000020FEE7FEE730B40021F6
:10178000084B0A465FF0000003EBC004401CC0B2E7
:1017900062548028F8D3491CC9B20829F2D330BC5E
:1017A00000F0C2B86801002030B1012807D1002143
:1017B0005FF0A70000F06EB90021A620FAE770479D
:1017C00010B558B1012810D10021C02000F062F9F5
:1017D0000021A020BDE8104000F05CB90021C82025
:1017E00000F058F90021A120F4E710BD30B5CC0875
:1017F00001F0070301259D40EBB2064D05EBC00546
:10180000C808285C0AB1184302E063EA0000C0433C
:10181000285530BD6801002070B5424D4FF400548A
:10182000002221462846FEF7F3FFC820FEF71CFEE3
:10183000012221462846FEF7EBFF0021AE2000F0F2
:1018400029F90021084600F025F90021102000F0B8
:1018500021F90021402000F01DF90021812000F035
:1018600019F90021CF2000F015F90021A12000F086
:1018700011F90021C82000F00DF90021A62000F088
:1018800009F90021A82000F005F900213F2000F00F
:1018900001F90021D32000F0FDF80021084600F0F6
:1018A000F9F80021D52000F0F5F80021802000F0A3
:1018B000F1F80021D92000F0EDF80021F12000F02E
:1018C000E9F80021DA2000F0E5F80021122000F00C
:1018D000E1F80021DB2000F0DDF80021402000F0DD
:1018E000D9F80021202000F0D5F80021022000F0D6
:1018F000D1F800218D2000F0CDF80021142000F057
:10190000C9F80021A42000F0C5F80021A62000F0AD
:10191000C1F8FFF733FFBDE870400021AF2000F0B1
:10192000B9B800000008014070B5114E002400BF96
:1019300004F1B000C0B2002100F0ACF8002108466C
:1019400000F0A8F80021102000F0A4F85FF00005D6
:1019500006EBC5000121005D00F09CF86D1CEDB2A6
:10196000802DF5D3641CE4B2082CE1D370BD0000D7
:10197000680100202DE9FC4F1C460E4682468B462E
:101980000190082B0DD0600700D0012000EBD4009F
:1019900061084843C0B28146203AD0B2009000208E
:1019A0004BE00620F7E7082C13D00C2C18D0102C95
:1019B0001BD0182C44D10098234900EBC00000BF75
:1019C00001EB8001002711F80850E80712D00B9AAC
:1019D00013E000981D4900EB400001EB4001F1E7E6
:1019E00000981B4900EB4000EAE71A49009801EB18
:1019F0000011E7E70B9828B3002231465046FFF765
:101A0000F5FE761C7F1C6D08FFB2F6B2082FDCD302
:101A10000AF1010000F0FF0A082C0AD00199AAEB94
:101A20000100B0EB540F04D10BF108008A4600F01E
:101A3000FF0B08F101005E46C0B280464845B2D3B4
:101A4000BDE8FC8F0122D8E7A2370008162B00085A
:101A50003E2D0008B23100082DE9F8411E4615461A
:101A600088460446079F0BE03346414620460097D0
:101A7000FFF780FF082E0AD004EB5600C4B26D1C9D
:101A80002A78A2F120005E28EED9BDE8F881A41DD5
:101A9000E4B2F4E72DE9F0471D4C054609B10122F7
:101AA00000E0002201212046FEF7B2FE00220221C2
:101AB000A0462046FEF7ACFE164F00244FF4004926
:101AC0004FF48046002231463846FEF7A1FE280634
:101AD00001D5012200E0002249463846FEF798FE73
:101AE000012231463846FEF793FE6806641C050E57
:101AF000E4B2082CE6D30122022144464046FEF718
:101B000087FE2046BDE8F04701221146FEF780BE61
:101B1000000801400010014003211420FFF781BCA0
:101B200010B51420FFF71AFD800705D10321BDE889
:101B300010401420FFF72EBD10BD70B506460821D9
:101B400088B000240846FFF76CFC00210D20FFF749
:101B50002DFD80210E20FFF764FC93208DF80400FA
:101B600020208DF8050006A801AB0090022219463E
:101B70000C20FFF763FC05000DD1002101A8425C99
:101B80007254425C491C5440C9B20429F7D3405CEA
:101B9000A04200D0FE2580210E20FFF7FBFC08B0FC
:101BA000284670BD30B50C460546082187B008466A
:101BB000FFF737FC07210D20FFF7F8FC0321142065
:101BC000FFF7E8FC06A801AB00908DF80450012255
:101BD00019460C20FFF732FC002809D1BDF8181077
:101BE000102905D19DF8041021709DF80510617031
:101BF00007B030BD10B5204C012208212046FEF769
:101C000007FE0220FEF730FC002208212046FEF7E6
:101C1000FFFD0220FEF728FC012208212046FEF7E6
:101C2000F7FD0220FEF720FC0F210120FFF7BEFC8C
:101C30000220FEF719FC3D211120FFF7B7FC1E2101
:101C40002D20FFF7B3FC00212C20FFF7AFFC8D21E6
:101C50002A20FFF7ABFC3E212B20FFF7A7FC4021F9
:101C60001520FFF7A3FCFFF757FF0220FEF7FCFB50
:101C7000BDE81040FFF754BF000801407047000066
:101C80000148FFF7D7B800005C00002001B582B022
:101C90000A200090012301AA02A90348FFF7D4F902
:101CA0009DF804000EBD00005C00002010B5406AE5
:101CB0000021C187C186FFF7BBF810BDF8B51546F6
:101CC0000E460B46009204460122022100F010F855
:101CD00040B93346002280212046009500F008F8E4
:101CE000002804D0606D40F0200060650320F8BD3E
:101CF0002DE9F8431E46914688460446089DFEF7A6
:101D00008DFD401B351AFEF789FD07462548006802
:101D1000C0F3CB30684338E0701C37D0FEF77EFD4F
:101D2000C01BA84203D215B1009860B32CE0206814
:101D3000416821F0E00141606068B0F5827F0BD11D
:101D4000A068B0F5004F02D0B0F5806F04D12068D4
:101D5000016821F040010160A06AB0F5005F09D17F
:101D60002068016821F4005101602068016841F495
:101D700000510160012084F85100002084F85000D7
:101D80000320BDE8F8830025401E0090206881688C
:101D900038EA010004D000214945BDD10020F0E718
:101DA0000121F9E7100000207047FEF73DBD30B576
:101DB0008FB028216846FEF7CCF914210AA8FEF757
:101DC000C8F901210804CDE900100024029402257D
:101DD0000491CDE907504FF4E01009906846FEF7F2
:101DE00097FE08B172B6FEE70F20CDE90A054FF461
:101DF0008060CDE90C4002210AA80E94FEF7ACFDEC
:101E0000002801D072B6FEE70FB030BD7047016800
:101E10000C3151E8002F22F4907241E80023002B8E
:101E2000F5D10168143151E8002F22F0010241E898
:101E30000023002BF5D1016B012909D101680C3178
:101E400051E8002F22F0100241E80023002BF5D1C9
:101E5000202180F8421000210163704770B50446CC
:101E600000680169E26821F4405111430161216970
:101E7000A0680843616908432168CA6841F20C639D
:101E80009A430243CA6020684169A26921F4407103
:101E9000114341611E492068884202D1FEF702FECB
:101EA00001E0FEF7EFFD00EBC00101EB00126068FE
:101EB00064218000B2FBF0F3B3FBF1F36FF018067E
:101EC0007343B2FBF0F5B2FBF0F605EB830532236A
:101ED00003EB0515B5FBF1F5B6FBF1F605F0F005E2
:101EE00005EB0615B2FBF0F6B2FBF0F0B0FBF1F03B
:101EF0006FF01802504306EB800003EB0010B0FBBC
:101F0000F1F0216800F00F002844886070BD0000E7
:101F1000003801402DE9F843984617460D4604461F
:101F2000089E24E0701C22D0FEF778FCA0EB08008D
:101F3000B0421AD8CEB12068C168490717D5802DA4
:101F400015D0402D13D00168C94309070FD401688B
:101F50000025406800902046FFF759FF0820606484
:101F600084F840500120BDE8F8830320FBE7206897
:101F7000006835EA000004D00020B842D2D000202A
:101F8000F1E70120F9E7FEE70FB4054B10B503A90F
:101F9000044A029800F03CF810BC5DF814FB000005
:101FA0007D240008580000200FB4084B10B504A988
:101FB00002AA039800F02CF8044602A9002000F0C1
:101FC00058FA204610BC5DF814FB0000732400088A
:101FD0000907090E002804DB00F1E02080F8001456
:101FE000704700F00F0000F1E02080F8141D7047EA
:101FF00002E008C8121F08C1002AFAD170477047D2
:10200000002001E001C1121F002AFBD1704700002F
:102010002DE9FF4F8DB00F460546002606E0252826
:102020000BD0DDE90F1290476D1C761C2878002834
:10203000F5D111B03046BDE8F08F0024A246A1468C
:102040000122EC4900E0044315F8013F203B02FA6D
:1020500003F00842F7D128782A2810D06FF02F0219
:102060002878A0F13001092914D80AEB8A0102EB83
:10207000410144F0020400EB010A6D1CF0E701CFBE
:102080005FEA000A03D544F40054CAF1000A44F0A0
:1020900002046D1C28782E2817D115F8010F44F082
:1020A00004042A280ED06FF02F022878A0F1300106
:1020B00009290AD809EB890102EB410100EB01096A
:1020C0006D1CF2E757F8049B6D1C28786C280FD024
:1020D00006DC4C2817D068280DD06A2814D104E0FB
:1020E000742810D07A280FD10DE044F400140AE0CF
:1020F00044F4801401E044F440146978814202D130
:1021000004F580146D1C6D1C2A786E2A1FD00CDC1F
:10211000632A31D004DC002A8BD0582A11D1A3E0E5
:10212000642A68D0692A0CD165E0732A2ED004DCB9
:102130006F2A73D0702A04D19BE0752A6FD0782A59
:102140006ED01046DDE90F129047761C50E1C4F3C3
:102150000250022806D0032809D0042801CF09D054
:10216000066045E101CFF117C0E9006140E101CF10
:1021700006803DE106703BE117F8040B8DF8000086
:1021800000208DF80100EB46012003E057F804BB66
:102190004FF0FF3061074FF0000102D40DE008F16D
:1021A0000101884649450FDA8045F8DB1BF8081025
:1021B0000029F4D108E008F1010188468142FADBE8
:1021C0001BF808100029F6D1DDE90F23AAEB08005F
:1021D0008146214600F036F9304400EB080604E061
:1021E000DDE90F121BF8010B9047B8F10108F7D297
:1021F00021464846F7E00A21C4F302534FF0000B92
:102200000891022B04D001CFC117032B09D00AE09B
:10221000FF1D27F00707F7E8020108E032E01FE0A2
:1022200020E000B2C117042B01D140B2C117031E38
:1022300071F1000307DA4FF0000CD0EB0C006CEBEF
:1022400001012D2302E0230504D52B238DF8243032
:10225000012303E0E30701D02023F7E7984658E085
:102260000A2110E010210EE010204FF0000B089022
:102270000CE010214FF0000B44F004044FF008096B
:10228000089103E008214FF0000B0891C4F30253BA
:10229000022B04D001CF0021032B06D006E0FF1D46
:1022A00027F00707F7E8020103E080B2042B00D112
:1022B000C0B24FF0000823072BD5702A07D0DDF8F5
:1022C00020C08CF0100C5CEA0B0C05D00EE0402313
:1022D0008DF82430012308E050EA010306D03023B2
:1022E0008DF824308DF8252002239846DDF820C093
:1022F0008CF0080C5CEA0B0C0BD150EA010301D105
:10230000630706D530238DF824304FF00108A9F17A
:102310000109582A04D038A20B9208AA0A920BE0AD
:102320003AA2F9E75B46089AFDF72BFF0B9B9B5CF3
:102330000A9A521E0A92137050EA0102F2D10A98C8
:10234000ADEB000000F1200B600702D524F48034CF
:1023500001E04FF00109D94502DDA9EB0B0000E0D7
:10236000002000EB0B0141440890AAEB010AE003B6
:1023700006D4DDE90F232146504600F063F80644F9
:102380004FF0000908E009A911F80900DDE90F1272
:10239000904709F10109761CC145F4DBE0030CD537
:1023A000DDE90F232146504600F04CF8064404E0D6
:1023B000DDE90F1230209047761C0899481E0890DE
:1023C0000029F5DC08E00A980A990078491C0A916E
:1023D000DDE90F129047761CBBF10001ABF1010B58
:1023E000F1DC21465046DDE90F2300F019F80644E0
:1023F0006D1C1BE609280100303132333435363785
:102400003839616263646566000000003031323340
:1024100034353637383941424344454600000000E0
:102420002DE9F041044600251E461746880404D4D1
:1024300005E039462020B0476D1C641EF9D52846BA
:10244000BDE8F0812DE9F041044600251E46904686
:10245000C80301D5302700E02027880404D505E013
:1024600041463846B0476D1C641EF9D52846BDE884
:10247000F0810A68531C0B601070704713B54FF65B
:10248000FF73012269460248FEF77AFF00981CBDDF
:10249000B4000020F0B58DB00026564D069601968A
:1024A00002960396049603272E704FF49670FDF75C
:1024B000DBFF0124082350A20A210F200094FFF71C
:1024C000CBFA3A4651A102A8FFF76EFD102302AAEB
:1024D0001E213C200094FFF7BFFAFFF725FA287869
:1024E000012804D12E706420FDF7BEFF7F1E2878DE
:1024F000022804D12E706420FDF7B6FF7F1C2878D7
:102500000328D7D12E70FFF739F90A21082341A2F9
:1025100008460094FFF7A0FAFFF706FA082342A244
:1025200032210A200094FFF797FAFFF7FDF91E21E8
:10253000102343A208460094FFF78EFAFFF7F4F940
:10254000C820FDF791FF1E2110233FA208460094EA
:10255000FFF782FAFFF7E8F9C820FDF785FF07A922
:102560005220FFF71FFB30B1FFF744FBFFF7D4FA0F
:10257000FFF7D6FADBE701A8FFF7DFFA9DF80700BF
:1025800000909DF806309DF805209DF8041030A0BD
:10259000FFF7FAFC344D002404EB440005EB400047
:1025A000042201A9FDF7E0FD20B1641C022CF3DB3D
:1025B0000DB0F0BD2DA0FFF7E7FC04EB440005EBE8
:1025C000400002228780A888ADF818006889ADF81D
:1025D0001A0006A92748FDF7D1FE9DF807000090D4
:1025E0009DF806309DF805209DF8041018A0FFF70F
:1025F000CBFCDDE700000020706C6561736520692D
:102600006E707574207072696365000025303264E5
:1026100000000000617070726F616368204E464375
:102620002063617264000000456E737572652062FC
:102630007574746F6E2063616E63656C00000000DA
:10264000203C3C3E3E2000003C3C20203E3E000022
:1026500025303278202530327820253032782025F8
:10266000303278200D0A00004C0000207965730D8F
:102670000A00000000F8000808B5FEF7DDF8FFF7D3
:1026800096FBFEF7ADFFFFF71BF8FFF73DF8FFF7EE
:1026900057F8FFF7C1F80020FFF786F80020FFF792
:1026A0008FF8FFF76BF8FFF7A5FAFFF735FAFFF79A
:1026B00037FA022269460648FDF7FAFD0548BDF8DB
:1026C00000108180BDF80210418100F02FF9FEE773
:1026D00000F800084C0000202DE9F04391B00025DF
:1026E000DFF82881DFF828910295039504950127EA
:1026F0000595102347A20A210F200097FFF7ACF998
:10270000082348A2322150200097FFF7A5F91E2187
:10271000102346A208460097FFF79EF9FFF704F939
:10272000C820FDF7A1FE1E21102342A208460097F3
:10273000FFF792F9FFF7F8F8C820FDF795FE98F833
:10274000000003280BD00BA95220FFF72BFAA8B1E9
:10275000FFF750FAFFF7E0F9FFF7E2F9C9E744465F
:1027600088F800504FF4C870FDF77EFEFFF706F8BA
:10277000257000F079F811B0BDE8F08302A8FFF7EA
:10278000DCF99DF80B109DF80A00CDE900019DF8D9
:1027900009309DF8082029A106A8FFF705FC0024B0
:1027A00004EB440109EB41010E46042202A8FDF7A7
:1027B000DBFC30BB0195B28825A103A8FFF7F4FB31
:1027C000FEF7DCFF1E21102303AA08460097FFF73F
:1027D00043F9FFF7A9F8B0884FF6FF73010A8DF8A7
:1027E00004108DF80500022201A91C48FEF7C8FD5F
:1027F0001BA0FFF7C9FB40F6B830FDF735FEFEF72A
:10280000BDFF641C022CCBDB73E70000000000203E
:102810004C0000205761697420466F72204E65613C
:102820007200000053657474696E6700203C3C3E82
:102830003E2000003C3C20203E3E00002530327807
:10284000253032782530327825303278000000008B
:1028500070726963653A253034780000FC0000200E
:1028600068656C6C6F0D0A00F8B500242646254D8E
:1028700002E00CB1012000E000200090082322A219
:102880000A210F20FFF7E8F8012C01D0012000E019
:1028900000200090082321A21E210F20FFF7DCF862
:1028A000FFF742F82878012807D12E706420FDF741
:1028B000DBFD641C012C00DD00242878022806D1F1
:1028C0002E706420FDF7D0FD641E00D50124287809
:1028D0000328CED12E704FF49670FDF7C5FD14B1CC
:1028E000012C04D109E0FEF749FFFFF7D3FDFEF705
:1028F00045FFBDE8F840FFF7EFBEBDE8F840FEF742
:102900003DBF0000000000207365742070726F648A
:102910007563742070726963650000006261636BA7
:1029200020746F20686F6D65000000002DE9F04F86
:10293000DFF8888185B00025D8F82C000B24604E84
:10294000019002900390A946A8F1080B01270DF110
:10295000040A04900A2110235AA208460097FFF7A0
:102960007BF83078012804D0022813D0032822D025
:1029700072E04FF49670FDF777FD86F800900B2C0F
:1029800006D0641E01D51DB10A2458F8241061E058
:102990000924FAE74FF49670FDF766FD86F800907B
:1029A0000B2C03D0641C1DB10A2CEEDD0024ECE7D7
:1029B000092CFBDCE9E74FF49670FDF755FD86F82E
:1029C00000900A2C2DD00BF805406D1C5946032DA4
:1029D0003DDD00200A5C0B2A2CD0401C0428F9DBCA
:1029E00036490422091F081FFDF7BEFB40B3FEF75E
:1029F000C5FE102337A2009728211E20FFF72CF8D0
:102A0000FEF792FF4FF47A70FDF72EFDFEF7B6FE4B
:102A1000D8F82C000B24002501900290039004901C
:102A200098E7D8F82C000B244AF825006D1E4AF8C8
:102A3000250011E0FEF7A2FE102329A20097DBE794
:102A4000FEF79CFEFFF748FE05B0BDE8F08FD8F812
:102A50002C100B244AF825100DB1012000E00020B5
:102A60000090102328211E20019AFEF7F5FF012D6A
:102A700001D0012000E00020009010232821322006
:102A8000029AFEF7E9FF022D01D0012000E00020AC
:102A90000090102328214620039AFEF7DDFF032D26
:102AA00001D0012000E000200090102328215A20AE
:102AB000049AFEF7D1FFFEF737FF4BE71C0000201A
:102AC0000000002041646D696E2050617373776F60
:102AD0007264200070696E206572726F720000006F
:102AE00070696E206572726F7273000001020203DA
:102AF0000405060708090A0B0C0D0E0F1010000044
:102B0000000000000000010203040607080900009D
:102B10000000010203040000000000000000002F7C
:102B2000000000000700070000147F147F14002439
:102B30002A7F2A1200626408132300364955225066
:102B400000000503000000001C224100000041229B
:102B50001C000014083E08140008083E0808000085
:102B600000A060000008080808080000606000007D
:102B7000002010080402003E5149453E0000427FFB
:102B80004000004261514946002141454B31001847
:102B900014127F10002745454539003C4A49493009
:102BA00000017109050300364949493600064949C3
:102BB000291E0000363600000000563600000008CE
:102BC00014224100001414141414000041221408AB
:102BD00000020151090600324959513E007C121190
:102BE000127C007F49494936003E41414122007F25
:102BF0004141221C007F49494941007F09090901DF
:102C0000003E4149497A007F0808087F0000417F63
:102C10004100002040413F01007F08142241007F15
:102C200040404040007F020C027F007F0408107F7C
:102C3000003E4141413E007F09090906003E4151E5
:102C4000215E007F091929460046494949310001A2
:102C5000017F0101003F4040403F001F2040201FF6
:102C6000003F4038403F00631408146300070870B9
:102C7000080700615149454300007F41410000556C
:102C80002A552A55000041417F0000040201020438
:102C90000040404040400000010204000020545425
:102CA0005478007F48444438003844444420003875
:102CB0004444487F00385454541800087E090102E7
:102CC0000018A4A4A47C007F080404780000447DBC
:102CD0004000004080847D00007F102844000000F8
:102CE000417F4000007C04180478007C08040478CC
:102CF00000384444443800FC2424241800182424B8
:102D000018FC007C080404080048545454200004B3
:102D10003F444020003C4040207C001C2040201CC0
:102D2000003C4030403C004428102844001CA0A037
:102D3000A07C004464544C44141414141414000073
:102D4000000000000000000000000000FC00000087
:102D5000000002000000000C020C02000000000055
:102D6000000090D0BCD0BC900003000300001824E9
:102D7000FE448C000302070201001824D8B04C80E6
:102D8000000300010201C038E438E0000102020142
:102D90000202080600000000000000000000000021
:102DA00000F80402000000010204000204F8000020
:102DB0000004020100009060F86090000000010033
:102DC00000002020FC202000000001000000000086
:102DD0000000000008060000000020202020200045
:102DE00000000000000000000000000000020000E1
:102DF00000000080601C0200040300000000F804D2
:102E00000404F8000102020201000008FC000000B6
:102E10000002030200001884442418000302020286
:102E2000020008042424D80001020202010040B07C
:102E300088FC80000000000302003C242424C4001D
:102E4000010202020100F824242CC0000102020247
:102E500001000C04E41C0400000003000000D8245E
:102E60002424D80001020202010038444444F8003E
:102E70000003020201000000100000000000020038
:102E800000000000200000000000060000000020FC
:102E90005088040200000000010290909090900081
:102EA0000000000000000002048850200002010021
:102EB00000001804C4241800000002000000F804F8
:102EC000E494F80001020202020000E09CF080009D
:102ED00002030000030204FC2424D80002030202BF
:102EE0000100F80404040C0001020202010004FCC9
:102EF0000404F80002030202010004FC24740C0024
:102F000002030202030004FC24740C00020302000A
:102F10000000F0080444CC4000010202010004FC5F
:102F20002020FC040203000003020404FC0404004B
:102F3000020203020200000404FC04040604040369
:102F4000000004FC24D00C0402030200030204FC71
:102F500004000000020302020203FC3CC03CFC002F
:102F600003000300030004FC30C4FC04020302005D
:102F70000300F8040404F80001020202010004FC4A
:102F800024241800020302000000F8848404F800DE
:102F900001020207050004FC2464980002030200F9
:102FA0000302182424448C000302020201000C04D2
:102FB000FC040C0000020302000004FC0000FC04FE
:102FC000000102020100047C80E01C0400000300F8
:102FD00000001CE03CE01C00000300030000049C17
:102FE000609C0400020300030200041CE01C0400B7
:102FF0000002030200000C84641C040002030202AD
:1030000003000000FE020200000007040400000E9E
:1030100030C00000000000010200000202FE0000BB
:103020000004040700000004020400000000000087
:103030000000000000000000080808080808000060
:10304000020000000000000000000040A0A0C0003E
:1030500000010202030204FC2020C000000302025F
:10306000010000C02020600000010202020000C038
:103070002024FC0000010202030200C0A0A0C00046
:103080000001020202000020F824240400020302CE
:1030900002000040A0A0602000070A0A0A0404FC05
:1030A0002020C0000203020003020020E400000010
:1030B000000203020000000020E4000008080807E6
:1030C000000004FC80E0202002030200030204044C
:1030D000FC000000020203020200E020E020C00029
:1030E00003000300030020E02020C00002030200D0
:1030F000030200C02020C00000010202010020E005
:103100002020C000080F0A02010000C02020E000BB
:103110000001020A0F0820E0402020000203020004
:1031200000000060A0A020000002020203000020B6
:10313000F820000000000102020020E00020E00072
:1031400000010202030220E0208060200000030151
:1031500000006080E0806000000300030000206049
:103160008060200002030003020020E02080602035
:103170000808070100000020A060200000020302F0
:103180000200000020DE0200000000070400000032
:1031900000FF00000000000F00000002DE20000021
:1031A0000004070000000201020404020000000005
:1031B000000000000000000000000000000000000F
:1031C0000000000000F800000000000000333000A4
:1031D000000000100C06100C0600000000000000AB
:1031E000000040C07840C0784000043F04043F0421
:1031F0000400007088FC08300000001820FF211E29
:103200000000F008F000E018000000211C031E215F
:103210001E0000F00888700000001E2123241927DA
:10322000211010160E000000000000000000000039
:103230000000000000E01804020000000007182051
:10324000400000020418E0000000004020180700C1
:103250000000404080F0804040000202010F010267
:103260000200000000F0000000000101011F010148
:103270000100000000000000000080B070000000AD
:103280000000000000000000000000010101010139
:1032900001010000000000000000003030000000CC
:1032A00000000000000080601804006018060100A3
:1032B000000000E010080810E000000F10202010AF
:1032C0000F00001010F8000000000020203F202018
:1032D00000000070080808887000003028242221AF
:1032E0003000003008888848300000182020201165
:1032F0000E000000C02010F8000000070424243F46
:10330000240000F8088888080800001921202011EE
:103310000E0000E0108888180000000F1120201116
:103320000E0000380808C83808000000003F000000
:1033300000000070880808887000001C22212122EB
:103340001C0000E010080810E000000031222211EB
:103350000F00000000C0C00000000000003030007E
:1033600000000000008000000000000080600000FD
:103370000000000080402010080000010204081036
:103380002000404040404040400004040404040445
:1033900004000008102040800000002010080402F3
:1033A0000100007048080808F000000000303601F5
:1033B0000000C030C828E810E000071827242314B4
:1033C0000B000000C038E0000000203C2302022770
:1033D000382008F8888888700000203F20202011BD
:1033E0000E00C030080808083800071820202010F8
:1033F000080008F808080810E000203F20202010EE
:103400000F0008F88888E8081000203F20202320BB
:10341000180008F88888E8081000203F2000030002
:103420000000C03008080838000007182020221EBD
:10343000020008F808000008F808203F21010121D7
:103440003F20000808F8080800000020203F202046
:10345000000000000808F8080800C08080807F0095
:10346000000008F888C028180800203F20012638EE
:10347000200008F8080000000000203F2020202045
:10348000300008F8F800F8F80800203F003F003F3F
:10349000200008F830C00008F808203F2000071876
:1034A0003F00E01008080810E0000F102020201056
:1034B0000F0008F808080808F000203F210101016A
:1034C0000000E01008080810E0000F18242438500D
:1034D0004F0008F8888888887000203F2000030C7F
:1034E0003020007088080808380000382021212288
:1034F0001C00180808F8080818000000203F2000E9
:10350000000008F808000008F808001F202020200C
:103510001F000878880000C83808000007380E012E
:103520000000F80800F80008F800033C0700073C1A
:103530000300081868808068180820302C03032CCA
:1035400030200838C800C83808000000203F20009C
:10355000000010080808C83808002038262120205C
:103560001800000000FE020202000000007F404040
:103570004000000C30C000000000000000010638D0
:10358000C00000020202FE000000004040407F0038
:10359000000000000402020204000000000000001D
:1035A000000000000000000000008080808080801B
:1035B0008080000202040000000000000000000003
:1035C0000000000080808080000000192422222258
:1035D0003F2008F8008080000000003F11202011EB
:1035E0000E000000008080800000000E11202020CE
:1035F0001100000000808088F800000E11202010CB
:103600003F200000808080800000001F22222222B4
:103610001300008080F0888888180020203F202038
:1036200000000000808080808000006B9494949360
:10363000600008F8008080800000203F210000200A
:103640003F2000809898000000000020203F2020AC
:103650000000000000809898000000C08080807FFB
:10366000000008F8000080808000203F24022D30F8
:103670002000000808F8000000000020203F202063
:1036800000008080808080808000203F20003F20DC
:10369000003F8080008080800000203F21000020CB
:1036A0003F200000808080800000001F202020201C
:1036B0001F00808000808000000080FFA12020117A
:1036C0000E000000008080808000000E112020A0ED
:1036D000FF80808080008080800020203F212000AB
:1036E0000100000080808080800000332424242496
:1036F0001900008080E0808000000000001F202072
:1037000000008080000000808000001F202020102A
:103710003F20808080000080808000010E300806FD
:10372000010080800080008080800F300C030C300E
:103730000F0000808000808080000020312E0E313C
:103740002000808080000080808080818E7018063C
:10375000010000808080808080000021302C2221A8
:10376000300000000000807C020200000000003FEA
:10377000404000000000FF00000000000000FF00CB
:1037800000000002027C800000000040403F00007A
:103790000000000601010202040400000000000015
:1037A0000000000000000000000000000000000019
:1037B0000000000000000000000000000000000009
:1037C0000000000000000000000000F0F0F0000029
:1037D00000000000000000017F0100000000000068
:1037E0000000001C1C1C0000000000008060301C59
:1037F0008C60301C0C000000000000000000000085
:1038000000000000000000000000000000000000B8
:1038100000E00000000000E000000086E69F8686D1
:103820008686E69F860000011F01010101011F013C
:103830000100000080C06020F820E0C0000000000F
:1038400003070C18FF70E18100000000070F101043
:103850007F100F0700008060206080000000E020E3
:1038600000000F3020309F70DC371030C0000000A7
:10387000100E03000718101807000000C02020E0F9
:10388000C0000000000080E01F38E88703C43C044B
:103890000000070F1810100B070D10100800008013
:1038A0008C4C380000000000000000000000000008
:1038B0000000000000000000000000000000000008
:1038C000000000000000000080E03008040000005C
:1038D000000000FEFF0100000000000000000000EA
:1038E000030F1820400000040830E08000000000B2
:1038F00000000000000001FFFE000000000000408A
:1039000020180F030000000000000000000000006D
:10391000C00000000000004266663C18FF183C66CC
:1039200066420000000000000300000000000000EC
:1039300000000000800000000000001010101010B7
:10394000FF10101010100000000000000300000025
:103950000000000000000000000000000000000067
:103960000000000000000000000000808C4C3800C7
:103970000000000000000000000000000000000047
:103980000000001010101010101010101000000097
:103990000000000000000000000000000000000027
:1039A0000000000000000000000000000000000017
:1039B000000000001C1C1C000000000000000000B3
:1039C000000000000000E0380C00000000008070E3
:1039D0001C03000000000060380E01000000000021
:1039E0000000000080C060202060C080000000FE59
:1039F000FF010000000001FFFE000001070E18108B
:103A000010180E0701000000808080C0E000000058
:103A100000000000000000FFFF00000000000000A8
:103A20001010101F1F1010100000008040202020D8
:103A30002060C080000000030300804020381F0782
:103A40000000001C1A1918181818181F0000008010
:103A5000C020202060C08000000000030300101080
:103A6000182FE780000000070F10101010180F0724
:103A70000000000000000000C0E0F000000000C0F6
:103A8000B088868180FFFF80800000000000001069
:103A9000101F1F1010000000E06060606060606038
:103AA000000000003F1008080818F0E000000007C0
:103AB0000B101010101C0F030000000080C04020ED
:103AC0002020E0C0000000FCFF211008080818F0CA
:103AD000E0000001070C18101010080F0300000090
:103AE000C0E06060606060E0600000000300000013
:103AF000E0180700000000000000001F1F00000089
:103B000000000080C0602020202060C0800000876E
:103B1000EF2C1818303068CF830000070F08101002
:103B20001010180F07000000C0C020202020C08007
:103B30000000001F3F604040402010FFFE000000DA
:103B40000C1C101010080F03000000000000000003
:103B500000000000000000000000000E0E0E00003B
:103B6000000000000000001C1C1C00000000000001
:103B70000000000000000000000000000000000C39
:103B80000C00000000000000000000583800000099
:103B90000000000000000000008040201000000035
:103BA0001028448201000000000000000000000016
:103BB00001020408100000000000000000000000E6
:103BC00000000084848484848484848484000000CD
:103BD00000000000000000000000000010204080F5
:103BE00000000000000000000000000001824428E6
:103BF000100000001008040201000000000000C0D6
:103C000020201010101030E0C0000003030000F06E
:103C100010080C070300000000001C1C1C00000022
:103C20000000000000C0406020202040C00000FCD8
:103C3000FF01F00E03C1FE03807F0001070E081193
:103C40001110110904020000000080E0E0000000F3
:103C500000000000807C4340477FF880000010187F
:103C60001F1000000000131F1C1020E0E020202087
:103C70002060C080000000FFFF10101010182FE718
:103C80008000101F1F1010101010180F07000000E8
:103C900080C0402020202060E00000FCFF010000E8
:103CA0000000000001000001070E181010100804A9
:103CB000030020E0E02020202040C080000000FF22
:103CC000FF000000000001FFFE00101F1F10101079
:103CD00018080E07010020E0E020202020202060AE
:103CE000800000FFFF101010107C00000000101F6B
:103CF0001F10101010101018060020E0E0202020E7
:103D000020206060800000FFFF101010107C000079
:103D10000100101F1F100000000000000000000044
:103D200080C06020202040E0000000FCFF01000077
:103D30004040C0C140400001070E181010100F0F86
:103D4000000020E0E0200000000020E0E02000FF74
:103D5000FF101010101010FFFF00101F1F100000A8
:103D60000000101F1F100000202020E0E020202075
:103D700000000000000000FFFF0000000000000045
:103D80001010101F1F101010000000000000202055
:103D900020E0E020202000000000000000FFFF00E5
:103DA00000000060E0808080C07F3F00000020E0D5
:103DB000E020000020A06020200000FFFF30187CE1
:103DC000E3C000000000101F1F10000001131F1CA3
:103DD000181020E0E020000000000000000000FFBC
:103DE000FF000000000000000000101F1F10101056
:103DF00010101018060020E0E0E000000000E0E0F5
:103E0000E02000FF013FFEC0E01E01FFFF00101F89
:103E10001000031F0300101F1F1020E0E0C000006F
:103E200000000020E02000FF0003071C78E0800075
:103E3000FF00101F100000000000030F1F00000013
:103E400080C060202060C080000000FEFF010000F4
:103E5000000000FFFE000001070E181010180C07EC
:103E6000010020E0E0202020202060C0800000FF32
:103E7000FF2020202020301F0F00101F1F100000E7
:103E8000000000000000000080C060202060C080B2
:103E9000000000FEFF010000000000FFFE00000126
:103EA000070E1111133C7C67210020E0E020202048
:103EB000202060C0800000FFFF101030F0D0080FFD
:103EC0000700101F1F10000000030F1C10100080BF
:103ED000C060202020204040E00000070F0C181890
:103EE000303060E08100001F0C0810101010180F17
:103EF00007008060202020E0E0202020608001007A
:103F0000000000FFFF000000000100000000101F83
:103F10001F100000000020E0E02000000000002052
:103F2000E02000FFFF00000000000000FF0000078D
:103F30000F1810101010100807002060E0E020009B
:103F4000000020E060200000077FF88000807C03F4
:103F5000000000000000071F1C070000000020E018
:103F6000E02000E0E0200020E0200007FFF8E01F54
:103F7000FFFCE01F00000000031F0300011F0300FF
:103F80000000002060E0A0000020E06020000000B1
:103F900000038F7CF8C6010000000010181E1300FB
:103FA00001171F1810002060E0E02000000020E052
:103FB0006020000001073EF8E01807000000000044
:103FC0000010101F1F101000000000806020202033
:103FD00020A0E0E0200000000000C0F03E0F030041
:103FE000000000101C1F1710101010180600000011
:103FF000000000FC0404040404000000000000FFB2
:1040000000000000000000000000007F4040404031
:104010004000000010E00000000000000000000070
:104020000000031C60800000000000000000000091
:1040300000030C70800000000404040404FC000071
:10404000000000000000000000FF00000000000071
:1040500040404040407F0000000000000010080C7D
:10406000040C081000000000000000000000000028
:104070000000000000000000000000000000000040
:104080000000000000000000000000000000000030
:104090000000000000008080808080808080808020
:1040A00080800000000404080800000000000000F8
:1040B0000000000000000000000000000000000000
:1040C00000000000000000000000000000000000F0
:1040D0000000000098D844642424FCF80000000F7D
:1040E0001F18101010081F1F10180020E0F000000B
:1040F0000000000000000000FFFF180804040CF896
:10410000F00000001F0F18101010180F030000001F
:104110000000000000000000000000E0F8180404A7
:10412000043C3800000000030F0C101010100806AB
:1041300000000000000000000020E0F0000000E0AF
:10414000F81C04040408FFFF000000030F181010FF
:1041500010081F0F08000000000000000000000011
:1041600000000000E0F8484444444C78700000002F
:10417000030F0C181010100804000000000080C08D
:10418000602020E0C00000040404FFFF04040404D5
:104190000000000010101F1F101010000000000091
:1041A00000000000000000000000000070F88C0417
:1041B000048CF874040C007076CF8D8D8D89C878CE
:1041C00070000020E0F0000000000000000000008F
:1041D000FFFF08040404FCF8000000101F1F10007B
:1041E00000101F1F100000000000006060000000B1
:1041F00000000000040404FCFC00000000000000BB
:104200001010101F1F101010000000000000000010
:1042100000606000000000000000040404FCFC00DA
:1042200000000000C0C08080C07F3F000000002070
:10423000E0F000000000000000000000FFFF80C070
:10424000F41C0404000000101F1F1100031F1C10A9
:1042500010000000202020E0F0000000000000001E
:10426000000000FFFF000000000000001010101F01
:104270001F101010000000000000000000000000EF
:10428000000004FCFC0804FCFC0804FCFC00101FFB
:104290001F10001F1F10001F1F1000000000000053
:1042A0000000000000000004FCFC08080404FCF806
:1042B000000000101F1F100000101F1F1000000042
:1042C0000000000000000000000000E0F0180C04F6
:1042D000040C18F0E00000030F0C101010100C0F6D
:1042E00003000000000000000000000000000004C7
:1042F000FCFC080404040CF8F0000080FFFF889028
:1043000010101C0F0300000000000000000000005F
:10431000000000E0F81C04040408F8FC000000039E
:104320000F1810109088FFFF8000000000000000B0
:10433000000000000000040404FCFC100804040C4D
:104340000C001010101F1F101010000000000000C3
:104350000000000000000000000000003078CCC425
:104360008484840C1C0000001E1810101011190FFA
:1043700006000000000000C0000000000000000473
:104380000404FFFF040404000000000000000F1FED
:104390001010100C000000000000000000000000E1
:1043A00000000004FCFE00000004FCFE0000000011
:1043B0000F1F181010081F0F080000000000000059
:1043C00000000000000000040C3CFCC40000C43CE1
:1043D0000C0400000000010F1E0E01000000000090
:1043E00000000000000000000000043CFCC400E4E9
:1043F0007CFC84807C040000071F070000071F0767
:1044000000000000000000000000000000000004A8
:10441000041C7CE4C0341C0404000010101C1601B1
:10442000131F1C1810000000000000000000000016
:10443000000000040C3CFCC400C43C040400000068
:10444000C080C1370E010000000000000000000025
:1044500000000000000000001C0404C4F47C1C04E4
:1044600000000000101C1F17111010180E00000093
:104470000000000000F80C04000000000000001024
:1044800028EF00000000000000000000003F604036
:104490000000000000000000FF000000000000001D
:1044A00000000000FF00000000000000000000000D
:1044B000FF00000000000000040CF80000000000F5
:1044C000000000000000EF281000000000000000C5
:1044D00040603F00000000000000001806020204D7
:1044E000081020203008000000000000000000003C
:1044F00000000000000000000000000000000000BC
:10450000F010101010FF10101010F000000000004C
:104510000F04040404FF040404040F0000004040DE
:10452000405F555555755555555F4040400000401A
:10453000200F094989790909090F2040000000FE70
:1045400002424ACA4A4ACA4A4A4202FE000000FFE0
:1045500040504C4340404F50505C40FF0000000032
:10456000F888888888FF88888888F800000000001C
:104570001F080808087F888888889F80F00080824C
:104580008282828282E2A2928A86828080000000F9
:1045900000000040807F00000000000000001010BC
:1045A00010FF109008888888FF88888808000444D5
:1045B000827F01808040432C1028468180000010BB
:1045C000101010D030FF30D0121C10100000100856
:1045D0000402010000FF00000102040810000404AE
:1045E0000484E43C2724242424E404040400040276
:1045F0000100FF0909090949897F0000000000FE48
:10460000225A8600FE9292929292FE00000000FFD3
:1046100004080700FF4020030C14224140000080E2
:10462000402018068000071820408000000001008C
:10463000207028262120202438600001010000106D
:1046400012929292929292121202FE0000000000C8
:10465000003F101010103F0040807F00000000005D
:1046600000C080808080808080FC8480808080800A
:1046700080C0C0000000000000FF7F40404040407C
:1046800040FF40404040404040FF7F0000000000AD
:104690000000000000000000007F7000000000002B
:1046A000000000000000000000000000000000000A
:1046B0000000000000FCF800000000000000000006
:1046C00000000000000000000000FFFE02020202E5
:1046D0000202020202FFFF020202020202020202C0
:1046E000FF0300000000000000001F1F040404047A
:1046F0000404040404FFFF04040404040404040484
:104700001F0000000000000000000000000000008A
:1047100000000000007F3F000000000000000000DB
:104720000000000000000000000000000000000089
:104730000000000000000000000000000000000079
:10474000000000F8F8F0F070200000000000000009
:104750000000000000000000000000000000000059
:1047600000000000000000000000000000008000C9
:104770000000000000000000000000000000000039
:10478000000000FFFFFFFF0000000000000000002D
:104790000000000000000000000080800000000019
:1047A000000000000000000000000000000000FF0A
:1047B000FFFE0606060606060606060606060606A8
:1047C000060606FFFFFFFF060606060606060606A5
:1047D000060606060606060606FFFFFFFF0702009E
:1047E000000000000000000000000000000000FFCA
:1047F000FFFF0000000000000000000000000000BB
:10480000000000FFFFFFFF000000000000000000AC
:10481000000000000000000000FFFFFFFF0000009C
:10482000000000000000000000000000000000FF89
:10483000FFFF18181818181818181818181818182A
:10484000181818FFFFFFFF1818181818181818184C
:10485000181818181818181818FFFFFFFF00000084
:104860000000000000000000000000000000020145
:104870000100000000000000000000000000000037
:10488000000000FFFFFFFF0000000000000000002C
:104890000000000000000000000101000000000016
:1048A0000000000000000000000000000000000008
:1048B00000000000000000000000000000000000F8
:1048C000000000FFFFFFFF000000000000000000EC
:1048D00000000000000000000000000000000000D8
:1048E00000000000000000000000000000000000C8
:1048F00000000000000000000000000000000000B8
:104900000000001F1F0F0F0000000000000000004B
:104910000000000000000000000000000000000097
:104920000000000000000000300000003100000026
:1049300032000000330000003400000035000000A9
:104940003600000037000000380000003900000089
:104950003C0000005F0000007849000800000020D3
:104960005C000000F01F0008D44900085C00002033
:104970008C09000000200008000000000100000079
:10498000100000000000000000127A00000000008B
:1049900000000000284900082C49000830490008A0
:1049A00034490008384900083C49000840490008DB
:1049B00044490008484900084C490008504900088B
:1049C00054490008D2C7B205000013D08608000081
:0449D00000000000E3
:04000005080000ED02
:00000001FF
